{
  "contractName": "Initiatives",
  "abi": [
    {
      "constant": false,
      "inputs": [
        {
          "name": "contentHash",
          "type": "bytes20"
        },
        {
          "name": "acceptance",
          "type": "uint8"
        }
      ],
      "name": "create",
      "outputs": [
        {
          "name": "",
          "type": "uint256"
        }
      ],
      "payable": false,
      "stateMutability": "nonpayable",
      "type": "function"
    },
    {
      "constant": true,
      "inputs": [
        {
          "name": "id",
          "type": "uint256"
        }
      ],
      "name": "getInitiativeById",
      "outputs": [
        {
          "name": "",
          "type": "address"
        },
        {
          "name": "",
          "type": "uint8"
        },
        {
          "name": "",
          "type": "bytes20"
        },
        {
          "name": "",
          "type": "address"
        },
        {
          "name": "",
          "type": "address[]"
        },
        {
          "name": "",
          "type": "uint256"
        },
        {
          "name": "",
          "type": "bool"
        }
      ],
      "payable": false,
      "stateMutability": "view",
      "type": "function"
    },
    {
      "constant": false,
      "inputs": [
        {
          "name": "id",
          "type": "uint256"
        }
      ],
      "name": "back",
      "outputs": [],
      "payable": true,
      "stateMutability": "payable",
      "type": "function"
    },
    {
      "constant": true,
      "inputs": [
        {
          "name": "",
          "type": "uint256"
        }
      ],
      "name": "initiative",
      "outputs": [
        {
          "name": "initiator",
          "type": "address"
        },
        {
          "name": "acceptance",
          "type": "uint8"
        },
        {
          "name": "contentHash",
          "type": "bytes20"
        },
        {
          "name": "executor",
          "type": "address"
        },
        {
          "name": "totalPositiveVotes",
          "type": "uint256"
        },
        {
          "name": "totalNegativeVotes",
          "type": "uint256"
        },
        {
          "name": "totalFunds",
          "type": "uint256"
        },
        {
          "name": "closed",
          "type": "bool"
        }
      ],
      "payable": false,
      "stateMutability": "view",
      "type": "function"
    },
    {
      "constant": false,
      "inputs": [
        {
          "name": "id",
          "type": "uint256"
        }
      ],
      "name": "complete",
      "outputs": [],
      "payable": false,
      "stateMutability": "nonpayable",
      "type": "function"
    },
    {
      "constant": true,
      "inputs": [
        {
          "name": "id",
          "type": "uint256"
        },
        {
          "name": "backer",
          "type": "address"
        }
      ],
      "name": "getBackerAmountByInitiativeId",
      "outputs": [
        {
          "name": "",
          "type": "uint256"
        }
      ],
      "payable": false,
      "stateMutability": "view",
      "type": "function"
    },
    {
      "anonymous": false,
      "inputs": [
        {
          "indexed": false,
          "name": "id",
          "type": "uint256"
        }
      ],
      "name": "InitiativeCreated",
      "type": "event"
    }
  ],
  "bytecode": "0x606060405260008055341561001357600080fd5b610be4806100226000396000f300606060405260043610610078576000357c0100000000000000000000000000000000000000000000000000000000900463ffffffff16806309069be61461007d578063168a79a2146100cf5780634a562885146101f15780637e634edc14610209578063971d852f146102f1578063f82a3cb914610314575b600080fd5b341561008857600080fd5b6100b960048080356bffffffffffffffffffffffff191690602001909190803560ff1690602001909190505061036a565b6040518082815260200191505060405180910390f35b34156100da57600080fd5b6100f06004808035906020019091905050610491565b604051808873ffffffffffffffffffffffffffffffffffffffff1673ffffffffffffffffffffffffffffffffffffffff1681526020018760ff1660ff168152602001866bffffffffffffffffffffffff19166bffffffffffffffffffffffff191681526020018573ffffffffffffffffffffffffffffffffffffffff1673ffffffffffffffffffffffffffffffffffffffff1681526020018060200184815260200183151515158152602001828103825285818151815260200191508051906020019060200280838360005b838110156101d75780820151818401526020810190506101bc565b505050509050019850505050505050505060405180910390f35b6102076004808035906020019091905050610656565b005b341561021457600080fd5b61022a60048080359060200190919050506108da565b604051808973ffffffffffffffffffffffffffffffffffffffff1673ffffffffffffffffffffffffffffffffffffffff1681526020018860ff1660ff168152602001876bffffffffffffffffffffffff19166bffffffffffffffffffffffff191681526020018673ffffffffffffffffffffffffffffffffffffffff1673ffffffffffffffffffffffffffffffffffffffff168152602001858152602001848152602001838152602001821515151581526020019850505050505050505060405180910390f35b34156102fc57600080fd5b6103126004808035906020019091905050610995565b005b341561031f57600080fd5b610354600480803590602001909190803573ffffffffffffffffffffffffffffffffffffffff16906020019091905050610af5565b6040518082815260200191505060405180910390f35b60008060008081546001019190508190559050336001600083815260200190815260200160002060000160006101000a81548173ffffffffffffffffffffffffffffffffffffffff021916908373ffffffffffffffffffffffffffffffffffffffff160217905550826001600083815260200190815260200160002060000160146101000a81548160ff021916908360ff160217905550836001600083815260200190815260200160002060010160006101000a81548173ffffffffffffffffffffffffffffffffffffffff02191690836c01000000000000000000000000900402179055507ff88f8514cc40c025c86ba0fb01253452b0fc0bc65216b3653a4fd573451b36b4816040518082815260200191505060405180910390a18091505092915050565b60008060008061049f610b53565b6000806001600089815260200190815260200160002060000160009054906101000a900473ffffffffffffffffffffffffffffffffffffffff16600160008a815260200190815260200160002060000160149054906101000a900460ff16600160008b815260200190815260200160002060010160009054906101000a90046c0100000000000000000000000002600160008c815260200190815260200160002060020160009054906101000a900473ffffffffffffffffffffffffffffffffffffffff16600160008d8152602001908152602001600020600301600160008e815260200190815260200160002060080154600160008f815260200190815260200160002060090160009054906101000a900460ff168280548060200260200160405190810160405280929190818152602001828054801561063657602002820191906000526020600020905b8160009054906101000a900473ffffffffffffffffffffffffffffffffffffffff1673ffffffffffffffffffffffffffffffffffffffff16815260200190600101908083116105ec575b505050505092509650965096509650965096509650919395979092949650565b60003411151561066557600080fd5b600073ffffffffffffffffffffffffffffffffffffffff166001600083815260200190815260200160002060000160009054906101000a900473ffffffffffffffffffffffffffffffffffffffff1673ffffffffffffffffffffffffffffffffffffffff16141515156106d757600080fd5b600073ffffffffffffffffffffffffffffffffffffffff166001600083815260200190815260200160002060020160009054906101000a900473ffffffffffffffffffffffffffffffffffffffff1673ffffffffffffffffffffffffffffffffffffffff1614151561074857600080fd5b600015156001600083815260200190815260200160002060090160009054906101000a900460ff16151514151561077e57600080fd5b60006001600083815260200190815260200160002060040160003373ffffffffffffffffffffffffffffffffffffffff1673ffffffffffffffffffffffffffffffffffffffff168152602001908152602001600020541415610852576001600082815260200190815260200160002060030180548060010182816108029190610b67565b9160005260206000209001600033909190916101000a81548173ffffffffffffffffffffffffffffffffffffffff021916908373ffffffffffffffffffffffffffffffffffffffff160217905550505b346001600083815260200190815260200160002060040160003373ffffffffffffffffffffffffffffffffffffffff1673ffffffffffffffffffffffffffffffffffffffff1681526020019081526020016000206000828254019250508190555034600160008381526020019081526020016000206008016000828254019250508190555050565b60016020528060005260406000206000915090508060000160009054906101000a900473ffffffffffffffffffffffffffffffffffffffff16908060000160149054906101000a900460ff16908060010160009054906101000a90046c0100000000000000000000000002908060020160009054906101000a900473ffffffffffffffffffffffffffffffffffffffff16908060060154908060070154908060080154908060090160009054906101000a900460ff16905088565b600073ffffffffffffffffffffffffffffffffffffffff166001600083815260200190815260200160002060000160009054906101000a900473ffffffffffffffffffffffffffffffffffffffff1673ffffffffffffffffffffffffffffffffffffffff1614151515610a0757600080fd5b60006001600083815260200190815260200160002060080154111515610a2c57600080fd5b600073ffffffffffffffffffffffffffffffffffffffff166001600083815260200190815260200160002060020160009054906101000a900473ffffffffffffffffffffffffffffffffffffffff1673ffffffffffffffffffffffffffffffffffffffff16141515610a9d57600080fd5b336001600083815260200190815260200160002060020160006101000a81548173ffffffffffffffffffffffffffffffffffffffff021916908373ffffffffffffffffffffffffffffffffffffffff16021790555050565b60006001600084815260200190815260200160002060040160008373ffffffffffffffffffffffffffffffffffffffff1673ffffffffffffffffffffffffffffffffffffffff16815260200190815260200160002054905092915050565b602060405190810160405280600081525090565b815481835581811511610b8e57818360005260206000209182019101610b8d9190610b93565b5b505050565b610bb591905b80821115610bb1576000816000905550600101610b99565b5090565b905600a165627a7a72305820279a0a5347d34077815807e085f0b605569b708ff00ed99f5a0adea71058ec3e0029",
  "source": "pragma solidity ^0.4.16;\n\n/**\n * Contract that handles initiatives and all the work around.\n * This contract holds a total balance which is distributed across the initiatives in determined\n * ways by this contract.\n */\ncontract Initiatives {\n\n    struct Initiative {\n        address initiator; // A guy who created this initiative\n        uint8 acceptance; // 1..100% (as 0..100) % of votes for this initiative to be accepted\n        bytes20 contentHash; // SHA-1 hash of title and description of an initiative\n        address executor; // A person who completed the initiative and uploaded the evidence\n        address[] backers; // Addresses which backed this initiative\n        mapping (address => uint) funds; // Amounts funded by backers\n        mapping (address => bool) votes; // After initiative completion backers vote\n        uint totalPositiveVotes; // Total positive votes received from backers\n        uint totalNegativeVotes; // Total negative votes received from backers\n        uint totalFunds; // Total funds received by the initiative\n        bool closed; // Determines whether initiative is closed\n    }\n\n    uint lastInitiativeId = 0;\n\n    mapping (uint => Initiative) public initiative;\n\n    event InitiativeCreated(uint id);\n\n    function getInitiativeById (uint id) public view returns(\n        address, uint8, bytes20, address, address[], uint, bool\n    ) {\n        return (\n            initiative[id].initiator, initiative[id].acceptance, initiative[id].contentHash,\n            initiative[id].executor, initiative[id].backers, initiative[id].totalFunds,\n            initiative[id].closed\n        );\n    }\n\n    function getBackerAmountByInitiativeId (uint id, address backer) public view returns(uint) {\n        return initiative[id].funds[backer];\n    }\n\n    /**\n     * @param contentHash Hash of the title/description.\n     * @param acceptance Percentage of voters needed to accept the executor's work.\n     * @return Created initiative ID.\n     */\n    function create (bytes20 contentHash, uint8 acceptance) public returns(uint) {\n        uint id = ++lastInitiativeId;\n        initiative[id].initiator = msg.sender;\n        initiative[id].acceptance = acceptance;\n        initiative[id].contentHash = contentHash;\n        InitiativeCreated(id);\n        return id;\n    }\n\n    /**\n     * Mark the initiative completed by the sender.\n     * @param id Initiative to complete.\n     */\n    function complete (uint id) public {\n        require(initiative[id].initiator != address(0)); // initiative must exists\n        require(initiative[id].totalFunds > 0); // cannot mark \"empty\" initiative as completed\n        require(initiative[id].executor == address(0)); // cannot mark completed initiative again\n        initiative[id].executor = msg.sender;\n    }\n\n    /**\n     * Add funds to initiative.\n     * @param id Initiative to back.\n     */\n    function back (uint id) public payable {\n        require(msg.value > 0); // backer should really transfer some value\n        require(initiative[id].initiator != address(0)); // initiative must exists\n        require(initiative[id].executor == address(0)); // cannot back executed initiative\n        require(initiative[id].closed == false); // cannot back closed initiative\n        if (initiative[id].funds[msg.sender] == 0) { // if backed for the first time\n            initiative[id].backers.push(msg.sender); // add to the list of backers\n        }\n        initiative[id].funds[msg.sender] += msg.value;\n        initiative[id].totalFunds += msg.value;\n    }\n\n}",
  "sourcePath": "Z:\\ZitRos\\Projects\\initiative-society\\src\\ethereum\\contracts\\Initiative.sol",
  "compiler": {
    "name": "solc",
    "version": "0.4.18+commit.9cf6e910.Emscripten.clang"
  },
  "schemaVersion": "1.0.1",
  "updatedAt": "2017-12-20T16:01:14.980Z"
}