{
  "contractName": "Initiatives",
  "abi": [
    {
      "constant": true,
      "inputs": [
        {
          "name": "id",
          "type": "uint256"
        }
      ],
      "name": "getInitiativeById",
      "outputs": [
        {
          "name": "",
          "type": "address"
        },
        {
          "name": "",
          "type": "uint8"
        },
        {
          "name": "",
          "type": "bytes20"
        },
        {
          "name": "",
          "type": "address"
        },
        {
          "name": "",
          "type": "address[]"
        },
        {
          "name": "",
          "type": "uint256"
        },
        {
          "name": "",
          "type": "bool"
        }
      ],
      "payable": false,
      "stateMutability": "view",
      "type": "function"
    },
    {
      "inputs": [
        {
          "name": "",
          "type": "uint256"
        }
      ],
      "payable": false,
      "stateMutability": "view",
      "type": "function",
      "constant": true,
      "name": "initiative",
      "outputs": [
        {
          "name": "initiator",
          "type": "address"
        },
        {
          "name": "acceptance",
          "type": "uint8"
        },
        {
          "name": "contentHash",
          "type": "bytes20"
        },
        {
          "name": "executor",
          "type": "address"
        },
        {
          "name": "totalFunds",
          "type": "uint256"
        },
        {
          "name": "closed",
          "type": "bool"
        }
      ]
    },
    {
      "constant": false,
      "inputs": [
        {
          "name": "contentHash",
          "type": "bytes20"
        },
        {
          "name": "acceptance",
          "type": "uint8"
        }
      ],
      "name": "createInitiative",
      "outputs": [
        {
          "name": "",
          "type": "uint256"
        }
      ],
      "payable": false,
      "stateMutability": "nonpayable",
      "type": "function"
    },
    {
      "constant": true,
      "inputs": [
        {
          "name": "id",
          "type": "uint256"
        },
        {
          "name": "backer",
          "type": "address"
        }
      ],
      "name": "getBackerAmountByInitiativeId",
      "outputs": [
        {
          "name": "",
          "type": "uint256"
        }
      ],
      "payable": false,
      "stateMutability": "view",
      "type": "function"
    },
    {
      "inputs": [],
      "payable": false,
      "stateMutability": "nonpayable",
      "type": "constructor"
    }
  ],
  "bytecode": "0x606060405260008055341561001357600080fd5b61070d806100226000396000f300606060405260043610610062576000357c0100000000000000000000000000000000000000000000000000000000900463ffffffff168063168a79a2146100675780637e634edc14610189578063b1adb0c414610263578063f82a3cb9146102b5575b600080fd5b341561007257600080fd5b610088600480803590602001909190505061030b565b604051808873ffffffffffffffffffffffffffffffffffffffff1673ffffffffffffffffffffffffffffffffffffffff1681526020018760ff1660ff168152602001866bffffffffffffffffffffffff19166bffffffffffffffffffffffff191681526020018573ffffffffffffffffffffffffffffffffffffffff1673ffffffffffffffffffffffffffffffffffffffff1681526020018060200184815260200183151515158152602001828103825285818151815260200191508051906020019060200280838360005b8381101561016f578082015181840152602081019050610154565b505050509050019850505050505050505060405180910390f35b341561019457600080fd5b6101aa60048080359060200190919050506104d0565b604051808773ffffffffffffffffffffffffffffffffffffffff1673ffffffffffffffffffffffffffffffffffffffff1681526020018660ff1660ff168152602001856bffffffffffffffffffffffff19166bffffffffffffffffffffffff191681526020018473ffffffffffffffffffffffffffffffffffffffff1673ffffffffffffffffffffffffffffffffffffffff16815260200183815260200182151515158152602001965050505050505060405180910390f35b341561026e57600080fd5b61029f60048080356bffffffffffffffffffffffff191690602001909190803560ff1690602001909190505061057f565b6040518082815260200191505060405180910390f35b34156102c057600080fd5b6102f5600480803590602001909190803573ffffffffffffffffffffffffffffffffffffffff1690602001909190505061066f565b6040518082815260200191505060405180910390f35b6000806000806103196106cd565b6000806001600089815260200190815260200160002060000160009054906101000a900473ffffffffffffffffffffffffffffffffffffffff16600160008a815260200190815260200160002060000160149054906101000a900460ff16600160008b815260200190815260200160002060010160009054906101000a90046c0100000000000000000000000002600160008c815260200190815260200160002060020160009054906101000a900473ffffffffffffffffffffffffffffffffffffffff16600160008d8152602001908152602001600020600301600160008e815260200190815260200160002060050154600160008f815260200190815260200160002060060160009054906101000a900460ff16828054806020026020016040519081016040528092919081815260200182805480156104b057602002820191906000526020600020905b8160009054906101000a900473ffffffffffffffffffffffffffffffffffffffff1673ffffffffffffffffffffffffffffffffffffffff1681526020019060010190808311610466575b505050505092509650965096509650965096509650919395979092949650565b60016020528060005260406000206000915090508060000160009054906101000a900473ffffffffffffffffffffffffffffffffffffffff16908060000160149054906101000a900460ff16908060010160009054906101000a90046c0100000000000000000000000002908060020160009054906101000a900473ffffffffffffffffffffffffffffffffffffffff16908060050154908060060160009054906101000a900460ff16905086565b60008060008081546001019190508190559050336001600083815260200190815260200160002060000160006101000a81548173ffffffffffffffffffffffffffffffffffffffff021916908373ffffffffffffffffffffffffffffffffffffffff160217905550826001600083815260200190815260200160002060000160146101000a81548160ff021916908360ff160217905550836001600083815260200190815260200160002060010160006101000a81548173ffffffffffffffffffffffffffffffffffffffff02191690836c01000000000000000000000000900402179055508091505092915050565b60006001600084815260200190815260200160002060040160008373ffffffffffffffffffffffffffffffffffffffff1673ffffffffffffffffffffffffffffffffffffffff16815260200190815260200160002054905092915050565b6020604051908101604052806000815250905600a165627a7a72305820a3d8598cbc17000dbec0aaea5031f0d3516dc0767d9132ddcbdfe398154c9c8d0029",
  "source": "pragma solidity ^0.4.16;\n\ncontract Initiatives {\n\n    struct Initiative {\n        address initiator; // A guy who created this initiative\n        uint8 acceptance; // 1..100% (as 0..100) % of votes for this initiative to be accepted\n        bytes20 contentHash; // SHA-1 hash of title and description of an initiative\n        address executor; // A person who completed the initiative and uploaded the evidence\n        address[] backers; // Addresses which backed this initiative\n        mapping (address => uint) funds; // Amounts funded by backers\n        uint totalFunds; // Total funds received by the initiative\n        bool closed; // Determines whether initiative is closed\n    }\n\n    uint lastInitiativeId = 0;\n\n    mapping (uint => Initiative) public initiative;\n\n    function Initiatives() public {\n\n    }\n\n    function createInitiative (bytes20 contentHash, uint8 acceptance) public returns(uint) {\n        uint id = ++lastInitiativeId;\n        initiative[id].initiator = msg.sender;\n        initiative[id].acceptance = acceptance;\n        initiative[id].contentHash = contentHash;\n        return id;\n    }\n\n    function getInitiativeById (uint id) public view returns(\n        address, uint8, bytes20, address, address[], uint, bool\n    ) {\n        return (\n            initiative[id].initiator, initiative[id].acceptance, initiative[id].contentHash,\n            initiative[id].executor, initiative[id].backers, initiative[id].totalFunds,\n            initiative[id].closed\n        );\n    }\n\n    function getBackerAmountByInitiativeId (uint id, address backer) public view returns(uint) {\n        return initiative[id].funds[backer];\n    }\n\n}",
  "sourcePath": "Z:\\ZitRos\\Projects\\initiative-society\\src\\ethereum\\contracts\\Initiative.sol",
  "compiler": {
    "name": "solc",
    "version": "0.4.18+commit.9cf6e910.Emscripten.clang"
  },
  "schemaVersion": "1.0.1",
  "updatedAt": "2017-12-18T23:30:26.708Z"
}