{
  "contractName": "Initiatives",
  "abi": [
    {
      "constant": false,
      "inputs": [
        {
          "name": "id",
          "type": "uint256"
        }
      ],
      "name": "completeInitiative",
      "outputs": [],
      "payable": false,
      "stateMutability": "nonpayable",
      "type": "function"
    },
    {
      "constant": true,
      "inputs": [
        {
          "name": "id",
          "type": "uint256"
        }
      ],
      "name": "getInitiativeById",
      "outputs": [
        {
          "name": "",
          "type": "address"
        },
        {
          "name": "",
          "type": "uint8"
        },
        {
          "name": "",
          "type": "bytes20"
        },
        {
          "name": "",
          "type": "address"
        },
        {
          "name": "",
          "type": "address[]"
        },
        {
          "name": "",
          "type": "uint256"
        },
        {
          "name": "",
          "type": "bool"
        }
      ],
      "payable": false,
      "stateMutability": "view",
      "type": "function"
    },
    {
      "constant": false,
      "inputs": [
        {
          "name": "id",
          "type": "uint256"
        }
      ],
      "name": "backInitiative",
      "outputs": [],
      "payable": true,
      "stateMutability": "payable",
      "type": "function"
    },
    {
      "constant": true,
      "inputs": [
        {
          "name": "",
          "type": "uint256"
        }
      ],
      "name": "initiative",
      "outputs": [
        {
          "name": "initiator",
          "type": "address"
        },
        {
          "name": "acceptance",
          "type": "uint8"
        },
        {
          "name": "contentHash",
          "type": "bytes20"
        },
        {
          "name": "executor",
          "type": "address"
        },
        {
          "name": "totalPositiveVotes",
          "type": "uint256"
        },
        {
          "name": "totalNegativeVotes",
          "type": "uint256"
        },
        {
          "name": "totalFunds",
          "type": "uint256"
        },
        {
          "name": "closed",
          "type": "bool"
        }
      ],
      "payable": false,
      "stateMutability": "view",
      "type": "function"
    },
    {
      "constant": false,
      "inputs": [
        {
          "name": "contentHash",
          "type": "bytes20"
        },
        {
          "name": "acceptance",
          "type": "uint8"
        }
      ],
      "name": "createInitiative",
      "outputs": [
        {
          "name": "",
          "type": "uint256"
        }
      ],
      "payable": false,
      "stateMutability": "nonpayable",
      "type": "function"
    },
    {
      "constant": true,
      "inputs": [
        {
          "name": "id",
          "type": "uint256"
        },
        {
          "name": "backer",
          "type": "address"
        }
      ],
      "name": "getBackerAmountByInitiativeId",
      "outputs": [
        {
          "name": "",
          "type": "uint256"
        }
      ],
      "payable": false,
      "stateMutability": "view",
      "type": "function"
    },
    {
      "anonymous": false,
      "inputs": [
        {
          "indexed": false,
          "name": "id",
          "type": "uint256"
        }
      ],
      "name": "InitiativeCreated",
      "type": "event"
    }
  ],
  "bytecode": "0x606060405260008055341561001357600080fd5b610be4806100226000396000f300606060405260043610610078576000357c0100000000000000000000000000000000000000000000000000000000900463ffffffff1680631668017c1461007d578063168a79a2146100a057806354f7ff6b146101c25780637e634edc146101da578063b1adb0c4146102c2578063f82a3cb914610314575b600080fd5b341561008857600080fd5b61009e600480803590602001909190505061036a565b005b34156100ab57600080fd5b6100c160048080359060200190919050506104ca565b604051808873ffffffffffffffffffffffffffffffffffffffff1673ffffffffffffffffffffffffffffffffffffffff1681526020018760ff1660ff168152602001866bffffffffffffffffffffffff19166bffffffffffffffffffffffff191681526020018573ffffffffffffffffffffffffffffffffffffffff1673ffffffffffffffffffffffffffffffffffffffff1681526020018060200184815260200183151515158152602001828103825285818151815260200191508051906020019060200280838360005b838110156101a857808201518184015260208101905061018d565b505050509050019850505050505050505060405180910390f35b6101d8600480803590602001909190505061068f565b005b34156101e557600080fd5b6101fb6004808035906020019091905050610913565b604051808973ffffffffffffffffffffffffffffffffffffffff1673ffffffffffffffffffffffffffffffffffffffff1681526020018860ff1660ff168152602001876bffffffffffffffffffffffff19166bffffffffffffffffffffffff191681526020018673ffffffffffffffffffffffffffffffffffffffff1673ffffffffffffffffffffffffffffffffffffffff168152602001858152602001848152602001838152602001821515151581526020019850505050505050505060405180910390f35b34156102cd57600080fd5b6102fe60048080356bffffffffffffffffffffffff191690602001909190803560ff169060200190919050506109ce565b6040518082815260200191505060405180910390f35b341561031f57600080fd5b610354600480803590602001909190803573ffffffffffffffffffffffffffffffffffffffff16906020019091905050610af5565b6040518082815260200191505060405180910390f35b600073ffffffffffffffffffffffffffffffffffffffff166001600083815260200190815260200160002060000160009054906101000a900473ffffffffffffffffffffffffffffffffffffffff1673ffffffffffffffffffffffffffffffffffffffff16141515156103dc57600080fd5b6000600160008381526020019081526020016000206008015411151561040157600080fd5b600073ffffffffffffffffffffffffffffffffffffffff166001600083815260200190815260200160002060020160009054906101000a900473ffffffffffffffffffffffffffffffffffffffff1673ffffffffffffffffffffffffffffffffffffffff1614151561047257600080fd5b336001600083815260200190815260200160002060020160006101000a81548173ffffffffffffffffffffffffffffffffffffffff021916908373ffffffffffffffffffffffffffffffffffffffff16021790555050565b6000806000806104d8610b53565b6000806001600089815260200190815260200160002060000160009054906101000a900473ffffffffffffffffffffffffffffffffffffffff16600160008a815260200190815260200160002060000160149054906101000a900460ff16600160008b815260200190815260200160002060010160009054906101000a90046c0100000000000000000000000002600160008c815260200190815260200160002060020160009054906101000a900473ffffffffffffffffffffffffffffffffffffffff16600160008d8152602001908152602001600020600301600160008e815260200190815260200160002060080154600160008f815260200190815260200160002060090160009054906101000a900460ff168280548060200260200160405190810160405280929190818152602001828054801561066f57602002820191906000526020600020905b8160009054906101000a900473ffffffffffffffffffffffffffffffffffffffff1673ffffffffffffffffffffffffffffffffffffffff1681526020019060010190808311610625575b505050505092509650965096509650965096509650919395979092949650565b60003411151561069e57600080fd5b600073ffffffffffffffffffffffffffffffffffffffff166001600083815260200190815260200160002060000160009054906101000a900473ffffffffffffffffffffffffffffffffffffffff1673ffffffffffffffffffffffffffffffffffffffff161415151561071057600080fd5b600073ffffffffffffffffffffffffffffffffffffffff166001600083815260200190815260200160002060020160009054906101000a900473ffffffffffffffffffffffffffffffffffffffff1673ffffffffffffffffffffffffffffffffffffffff1614151561078157600080fd5b600015156001600083815260200190815260200160002060090160009054906101000a900460ff1615151415156107b757600080fd5b60006001600083815260200190815260200160002060040160003373ffffffffffffffffffffffffffffffffffffffff1673ffffffffffffffffffffffffffffffffffffffff16815260200190815260200160002054141561088b5760016000828152602001908152602001600020600301805480600101828161083b9190610b67565b9160005260206000209001600033909190916101000a81548173ffffffffffffffffffffffffffffffffffffffff021916908373ffffffffffffffffffffffffffffffffffffffff160217905550505b346001600083815260200190815260200160002060040160003373ffffffffffffffffffffffffffffffffffffffff1673ffffffffffffffffffffffffffffffffffffffff1681526020019081526020016000206000828254019250508190555034600160008381526020019081526020016000206008016000828254019250508190555050565b60016020528060005260406000206000915090508060000160009054906101000a900473ffffffffffffffffffffffffffffffffffffffff16908060000160149054906101000a900460ff16908060010160009054906101000a90046c0100000000000000000000000002908060020160009054906101000a900473ffffffffffffffffffffffffffffffffffffffff16908060060154908060070154908060080154908060090160009054906101000a900460ff16905088565b60008060008081546001019190508190559050336001600083815260200190815260200160002060000160006101000a81548173ffffffffffffffffffffffffffffffffffffffff021916908373ffffffffffffffffffffffffffffffffffffffff160217905550826001600083815260200190815260200160002060000160146101000a81548160ff021916908360ff160217905550836001600083815260200190815260200160002060010160006101000a81548173ffffffffffffffffffffffffffffffffffffffff02191690836c01000000000000000000000000900402179055507ff88f8514cc40c025c86ba0fb01253452b0fc0bc65216b3653a4fd573451b36b4816040518082815260200191505060405180910390a18091505092915050565b60006001600084815260200190815260200160002060040160008373ffffffffffffffffffffffffffffffffffffffff1673ffffffffffffffffffffffffffffffffffffffff16815260200190815260200160002054905092915050565b602060405190810160405280600081525090565b815481835581811511610b8e57818360005260206000209182019101610b8d9190610b93565b5b505050565b610bb591905b80821115610bb1576000816000905550600101610b99565b5090565b905600a165627a7a723058205a26a60701dcfb9356a333f7bd7a77615769571467a39d70a5977265d2b58fcc0029",
  "source": "pragma solidity ^0.4.16;\n\n/**\n * Contract that handles initiatives and all the work around.\n * This contract holds a total balance which is distributed across the initiatives in determined\n * ways by this contract.\n */\ncontract Initiatives {\n\n    struct Initiative {\n        address initiator; // A guy who created this initiative\n        uint8 acceptance; // 1..100% (as 0..100) % of votes for this initiative to be accepted\n        bytes20 contentHash; // SHA-1 hash of title and description of an initiative\n        address executor; // A person who completed the initiative and uploaded the evidence\n        address[] backers; // Addresses which backed this initiative\n        mapping (address => uint) funds; // Amounts funded by backers\n        mapping (address => bool) votes; // After initiative completion backers vote\n        uint totalPositiveVotes; // Total positive votes received from backers\n        uint totalNegativeVotes; // Total negative votes received from backers\n        uint totalFunds; // Total funds received by the initiative\n        bool closed; // Determines whether initiative is closed\n    }\n\n    uint lastInitiativeId = 0;\n\n    mapping (uint => Initiative) public initiative;\n\n    event InitiativeCreated(uint id);\n\n    function getInitiativeById (uint id) public view returns(\n        address, uint8, bytes20, address, address[], uint, bool\n    ) {\n        return (\n        initiative[id].initiator, initiative[id].acceptance, initiative[id].contentHash,\n        initiative[id].executor, initiative[id].backers, initiative[id].totalFunds,\n        initiative[id].closed\n        );\n    }\n\n    function getBackerAmountByInitiativeId (uint id, address backer) public view returns(uint) {\n        return initiative[id].funds[backer];\n    }\n\n    /**\n     * @param contentHash Hash of the title/description.\n     * @param acceptance Percentage of voters needed to accept the executor's work.\n     * @return Created initiative ID.\n     */\n    function createInitiative (bytes20 contentHash, uint8 acceptance) public returns(uint) {\n        uint id = ++lastInitiativeId;\n        initiative[id].initiator = msg.sender;\n        initiative[id].acceptance = acceptance;\n        initiative[id].contentHash = contentHash;\n        InitiativeCreated(id);\n        return id;\n    }\n\n    /**\n     * Mark the initiative completed by the sender.\n     * @param id Initiative to complete.\n     */\n    function completeInitiative (uint id) public {\n        require(initiative[id].initiator != address(0)); // initiative must exists\n        require(initiative[id].totalFunds > 0); // cannot mark \"empty\" initiative as completed\n        require(initiative[id].executor == address(0)); // cannot mark completed initiative again\n        initiative[id].executor = msg.sender;\n    }\n\n    /**\n     * Add funds to initiative.\n     * @param id Initiative to back.\n     */\n    function backInitiative (uint id) public payable {\n        require(msg.value > 0); // backer should really transfer some value\n        require(initiative[id].initiator != address(0)); // initiative must exists\n        require(initiative[id].executor == address(0)); // cannot back executed initiative\n        require(initiative[id].closed == false); // cannot back closed initiative\n        if (initiative[id].funds[msg.sender] == 0) { // if backed for the first time\n            initiative[id].backers.push(msg.sender); // add to the list of backers\n        }\n        initiative[id].funds[msg.sender] += msg.value;\n        initiative[id].totalFunds += msg.value;\n    }\n\n}",
  "sourcePath": "Z:\\ZitRos\\Projects\\initiative-society\\src\\ethereum\\contracts\\Initiative.sol",
  "compiler": {
    "name": "solc",
    "version": "0.4.18+commit.9cf6e910.Emscripten.clang"
  },
  "schemaVersion": "1.0.1",
  "updatedAt": "2017-12-19T14:17:49.097Z"
}