{
  "contractName": "Initiatives",
  "abi": [
    {
      "constant": false,
      "inputs": [
        {
          "name": "contentHash",
          "type": "bytes20"
        },
        {
          "name": "acceptance",
          "type": "uint8"
        }
      ],
      "name": "create",
      "outputs": [
        {
          "name": "",
          "type": "uint256"
        }
      ],
      "payable": false,
      "stateMutability": "nonpayable",
      "type": "function"
    },
    {
      "constant": true,
      "inputs": [
        {
          "name": "id",
          "type": "uint256"
        }
      ],
      "name": "getInitiativeById",
      "outputs": [
        {
          "name": "initiator",
          "type": "address"
        },
        {
          "name": "acceptance",
          "type": "uint8"
        },
        {
          "name": "contentHash",
          "type": "bytes20"
        },
        {
          "name": "executor",
          "type": "address"
        },
        {
          "name": "backers",
          "type": "address[]"
        },
        {
          "name": "totalFunds",
          "type": "uint256"
        },
        {
          "name": "closed",
          "type": "bool"
        },
        {
          "name": "voters",
          "type": "address[]"
        },
        {
          "name": "votes",
          "type": "bool[]"
        }
      ],
      "payable": false,
      "stateMutability": "view",
      "type": "function"
    },
    {
      "constant": false,
      "inputs": [
        {
          "name": "id",
          "type": "uint256"
        }
      ],
      "name": "back",
      "outputs": [],
      "payable": true,
      "stateMutability": "payable",
      "type": "function"
    },
    {
      "constant": true,
      "inputs": [
        {
          "name": "",
          "type": "uint256"
        }
      ],
      "name": "initiative",
      "outputs": [
        {
          "name": "acceptance",
          "type": "uint8"
        },
        {
          "name": "contentHash",
          "type": "bytes20"
        },
        {
          "name": "initiator",
          "type": "address"
        },
        {
          "name": "executor",
          "type": "address"
        },
        {
          "name": "numberOfVotes",
          "type": "uint256"
        },
        {
          "name": "totalFunds",
          "type": "uint256"
        },
        {
          "name": "closed",
          "type": "bool"
        }
      ],
      "payable": false,
      "stateMutability": "view",
      "type": "function"
    },
    {
      "constant": false,
      "inputs": [
        {
          "name": "id",
          "type": "uint256"
        }
      ],
      "name": "complete",
      "outputs": [],
      "payable": false,
      "stateMutability": "nonpayable",
      "type": "function"
    },
    {
      "constant": false,
      "inputs": [
        {
          "name": "id",
          "type": "uint256"
        },
        {
          "name": "isPositive",
          "type": "bool"
        }
      ],
      "name": "vote",
      "outputs": [],
      "payable": false,
      "stateMutability": "nonpayable",
      "type": "function"
    },
    {
      "constant": true,
      "inputs": [
        {
          "name": "id",
          "type": "uint256"
        },
        {
          "name": "backer",
          "type": "address"
        }
      ],
      "name": "getBackerAmountByInitiativeId",
      "outputs": [
        {
          "name": "",
          "type": "uint256"
        }
      ],
      "payable": false,
      "stateMutability": "view",
      "type": "function"
    },
    {
      "anonymous": false,
      "inputs": [
        {
          "indexed": false,
          "name": "id",
          "type": "uint256"
        }
      ],
      "name": "InitiativeCreated",
      "type": "event"
    },
    {
      "anonymous": false,
      "inputs": [
        {
          "indexed": false,
          "name": "success",
          "type": "bool"
        }
      ],
      "name": "InitiativeCompleted",
      "type": "event"
    }
  ],
  "bytecode": "0x606060405260008055341561001357600080fd5b6115eb806100226000396000f300606060405260043610610083576000357c0100000000000000000000000000000000000000000000000000000000900463ffffffff16806309069be614610088578063168a79a2146100da5780634a5628851461028c5780637e634edc146102a4578063971d852f14610385578063c9d27afe146103a8578063f82a3cb9146103d6575b600080fd5b341561009357600080fd5b6100c460048080356bffffffffffffffffffffffff191690602001909190803560ff1690602001909190505061042c565b6040518082815260200191505060405180910390f35b34156100e557600080fd5b6100fb6004808035906020019091905050610575565b604051808a73ffffffffffffffffffffffffffffffffffffffff1673ffffffffffffffffffffffffffffffffffffffff1681526020018960ff1660ff168152602001886bffffffffffffffffffffffff19166bffffffffffffffffffffffff191681526020018773ffffffffffffffffffffffffffffffffffffffff1673ffffffffffffffffffffffffffffffffffffffff16815260200180602001868152602001851515151581526020018060200180602001848103845289818151815260200191508051906020019060200280838360005b838110156101ea5780820151818401526020810190506101cf565b50505050905001848103835286818151815260200191508051906020019060200280838360005b8381101561022c578082015181840152602081019050610211565b50505050905001848103825285818151815260200191508051906020019060200280838360005b8381101561026e578082015181840152602081019050610253565b505050509050019c5050505050505050505050505060405180910390f35b6102a2600480803590602001909190505061091b565b005b34156102af57600080fd5b6102c56004808035906020019091905050610b9f565b604051808860ff1660ff168152602001876bffffffffffffffffffffffff19166bffffffffffffffffffffffff191681526020018673ffffffffffffffffffffffffffffffffffffffff1673ffffffffffffffffffffffffffffffffffffffff1681526020018573ffffffffffffffffffffffffffffffffffffffff1673ffffffffffffffffffffffffffffffffffffffff1681526020018481526020018381526020018215151515815260200197505050505050505060405180910390f35b341561039057600080fd5b6103a66004808035906020019091905050610c54565b005b34156103b357600080fd5b6103d460048080359060200190919080351515906020019091905050610db4565b005b34156103e157600080fd5b610416600480803590602001909190803573ffffffffffffffffffffffffffffffffffffffff16906020019091905050611123565b6040518082815260200191505060405180910390f35b60008060008360ff16118015610446575060648360ff1611155b151561045157600080fd5b60008081546001019190508190559050336001600083815260200190815260200160002060010160006101000a81548173ffffffffffffffffffffffffffffffffffffffff021916908373ffffffffffffffffffffffffffffffffffffffff160217905550826001600083815260200190815260200160002060000160006101000a81548160ff021916908360ff160217905550836001600083815260200190815260200160002060000160016101000a81548173ffffffffffffffffffffffffffffffffffffffff02191690836c01000000000000000000000000900402179055507ff88f8514cc40c025c86ba0fb01253452b0fc0bc65216b3653a4fd573451b36b4816040518082815260200191505060405180910390a18091505092915050565b600080600080610583611546565b60008061058e611546565b61059661155a565b6000600160008c815260200190815260200160002060010160009054906101000a900473ffffffffffffffffffffffffffffffffffffffff169950600160008c815260200190815260200160002060000160009054906101000a900460ff169850600160008c815260200190815260200160002060000160019054906101000a90046c01000000000000000000000000029750600160008c815260200190815260200160002060020160009054906101000a900473ffffffffffffffffffffffffffffffffffffffff169650600160008c81526020019081526020016000206003018054806020026020016040519081016040528092919081815260200182805480156106f857602002820191906000526020600020905b8160009054906101000a900473ffffffffffffffffffffffffffffffffffffffff1673ffffffffffffffffffffffffffffffffffffffff16815260200190600101908083116106ae575b50505050509550600160008c8152602001908152602001600020600901549450600160008c8152602001908152602001600020600a0160009054906101000a900460ff169350600160008c8152602001908152602001600020600801546040518059106107625750595b90808252806020026020018201604052509250600160008c8152602001908152602001600020600801546040518059106107995750595b90808252806020026020018201604052509150600090505b600160008c81526020019081526020016000206008015481101561090d57600160008c8152602001908152602001600020600401818154811015156107f257fe5b906000526020600020900160009054906101000a900473ffffffffffffffffffffffffffffffffffffffff16838281518110151561082c57fe5b9060200190602002019073ffffffffffffffffffffffffffffffffffffffff16908173ffffffffffffffffffffffffffffffffffffffff1681525050600160008c81526020019081526020016000206007016000848381518110151561088e57fe5b9060200190602002015173ffffffffffffffffffffffffffffffffffffffff1673ffffffffffffffffffffffffffffffffffffffff16815260200190815260200160002060009054906101000a900460ff1682828151811015156108ee57fe5b90602001906020020190151590811515815250508060010190506107b1565b509193959799909294969850565b60003411151561092a57600080fd5b600073ffffffffffffffffffffffffffffffffffffffff166001600083815260200190815260200160002060010160009054906101000a900473ffffffffffffffffffffffffffffffffffffffff1673ffffffffffffffffffffffffffffffffffffffff161415151561099c57600080fd5b600073ffffffffffffffffffffffffffffffffffffffff166001600083815260200190815260200160002060020160009054906101000a900473ffffffffffffffffffffffffffffffffffffffff1673ffffffffffffffffffffffffffffffffffffffff16141515610a0d57600080fd5b6000151560016000838152602001908152602001600020600a0160009054906101000a900460ff161515141515610a4357600080fd5b60006001600083815260200190815260200160002060050160003373ffffffffffffffffffffffffffffffffffffffff1673ffffffffffffffffffffffffffffffffffffffff168152602001908152602001600020541415610b1757600160008281526020019081526020016000206003018054806001018281610ac7919061156e565b9160005260206000209001600033909190916101000a81548173ffffffffffffffffffffffffffffffffffffffff021916908373ffffffffffffffffffffffffffffffffffffffff160217905550505b346001600083815260200190815260200160002060050160003373ffffffffffffffffffffffffffffffffffffffff1673ffffffffffffffffffffffffffffffffffffffff1681526020019081526020016000206000828254019250508190555034600160008381526020019081526020016000206009016000828254019250508190555050565b60016020528060005260406000206000915090508060000160009054906101000a900460ff16908060000160019054906101000a90046c0100000000000000000000000002908060010160009054906101000a900473ffffffffffffffffffffffffffffffffffffffff16908060020160009054906101000a900473ffffffffffffffffffffffffffffffffffffffff169080600801549080600901549080600a0160009054906101000a900460ff16905087565b600073ffffffffffffffffffffffffffffffffffffffff166001600083815260200190815260200160002060010160009054906101000a900473ffffffffffffffffffffffffffffffffffffffff1673ffffffffffffffffffffffffffffffffffffffff1614151515610cc657600080fd5b60006001600083815260200190815260200160002060090154111515610ceb57600080fd5b600073ffffffffffffffffffffffffffffffffffffffff166001600083815260200190815260200160002060020160009054906101000a900473ffffffffffffffffffffffffffffffffffffffff1673ffffffffffffffffffffffffffffffffffffffff16141515610d5c57600080fd5b336001600083815260200190815260200160002060020160006101000a81548173ffffffffffffffffffffffffffffffffffffffff021916908373ffffffffffffffffffffffffffffffffffffffff16021790555050565b6000600160008481526020019081526020016000209050600073ffffffffffffffffffffffffffffffffffffffff166001600085815260200190815260200160002060010160009054906101000a900473ffffffffffffffffffffffffffffffffffffffff1673ffffffffffffffffffffffffffffffffffffffff1614151515610e3d57600080fd5b6000151581600a0160009054906101000a900460ff161515141515610e6157600080fd5b600073ffffffffffffffffffffffffffffffffffffffff168160020160009054906101000a900473ffffffffffffffffffffffffffffffffffffffff1673ffffffffffffffffffffffffffffffffffffffff1614151515610ec157600080fd5b600015158160060160003373ffffffffffffffffffffffffffffffffffffffff1673ffffffffffffffffffffffffffffffffffffffff16815260200190815260200160002060009054906101000a900460ff161515141515610f2257600080fd5b60008160050160003373ffffffffffffffffffffffffffffffffffffffff1673ffffffffffffffffffffffffffffffffffffffff16815260200190815260200160002054111515610f7257600080fd5b806004018054905081600801541015610fe95733816004018260080154815481101515610f9b57fe5b906000526020600020900160006101000a81548173ffffffffffffffffffffffffffffffffffffffff021916908373ffffffffffffffffffffffffffffffffffffffff16021790555061104f565b806004018054806001018281610fff919061156e565b9160005260206000209001600033909190916101000a81548173ffffffffffffffffffffffffffffffffffffffff021916908373ffffffffffffffffffffffffffffffffffffffff160217905550505b6001816008016000828254019250508190555060018160060160003373ffffffffffffffffffffffffffffffffffffffff1673ffffffffffffffffffffffffffffffffffffffff16815260200190815260200160002060006101000a81548160ff021916908315150217905550818160070160003373ffffffffffffffffffffffffffffffffffffffff1673ffffffffffffffffffffffffffffffffffffffff16815260200190815260200160002060006101000a81548160ff02191690831515021790555061111e81611181565b505050565b60006001600084815260200190815260200160002060050160008373ffffffffffffffffffffffffffffffffffffffff1673ffffffffffffffffffffffffffffffffffffffff16815260200190815260200160002054905092915050565b6000806000806000935060009250600091505b84600801548210156112cb5784600501600086600401848154811015156111b757fe5b906000526020600020900160009054906101000a900473ffffffffffffffffffffffffffffffffffffffff1673ffffffffffffffffffffffffffffffffffffffff1673ffffffffffffffffffffffffffffffffffffffff168152602001908152602001600020549050846007016000866004018481548110151561123757fe5b906000526020600020900160009054906101000a900473ffffffffffffffffffffffffffffffffffffffff1673ffffffffffffffffffffffffffffffffffffffff1673ffffffffffffffffffffffffffffffffffffffff16815260200190815260200160002060009054906101000a900460ff16156112ba5780840193506112c0565b80830192505b816001019150611194565b8460000160009054906101000a900460ff1660ff168560090154856064028115156112f257fe5b0410151561130a57611305856001611373565b61136c565b8460000160009054906101000a900460ff1660640360ff1685600901548460640281151561133457fe5b04111561134b57611346856000611373565b61136b565b84600301805490508560080154141561136a57611369856000611373565b5b5b5b5050505050565b60008115611405578260020160009054906101000a900473ffffffffffffffffffffffffffffffffffffffff1673ffffffffffffffffffffffffffffffffffffffff166108fc84600901549081150290604051600060405180830381858888f1935050505015156113e357600080fd5b600183600a0160006101000a81548160ff021916908315150217905550611506565b600090505b82600801548110156114b7576000836006016000856004018481548110151561142f57fe5b906000526020600020900160009054906101000a900473ffffffffffffffffffffffffffffffffffffffff1673ffffffffffffffffffffffffffffffffffffffff1673ffffffffffffffffffffffffffffffffffffffff16815260200190815260200160002060006101000a81548160ff02191690831515021790555080600101905061140a565b60008360020160006101000a81548173ffffffffffffffffffffffffffffffffffffffff021916908373ffffffffffffffffffffffffffffffffffffffff160217905550600083600801819055505b7f22012d07e99199133eb139cf2161ceb1aba5a6834cb6920cb4aa85a90dc79f8a82604051808215151515815260200191505060405180910390a1505050565b602060405190810160405280600081525090565b602060405190810160405280600081525090565b81548183558181151161159557818360005260206000209182019101611594919061159a565b5b505050565b6115bc91905b808211156115b85760008160009055506001016115a0565b5090565b905600a165627a7a72305820556db375a687d9858fdcfd50de5efc0c0c17ede9398013c794846eda48df78d10029",
  "source": "pragma solidity ^0.4.16;\n\n/**\n * Contract that handles initiatives and all the work around.\n * This contract holds a total balance which is distributed across the initiatives in determined\n * ways by this contract.\n */\ncontract Initiatives {\n\n    struct Initiative {\n        uint8 acceptance; // 1..100% (as 0..100) % of votes for this initiative to be accepted\n        bytes20 contentHash; // SHA-1 hash of title and description of an initiative\n        address initiator; // A guy who created this initiative\n        address executor; // A person who completed the initiative and uploaded the evidence\n        address[] backers; // Addresses which backed this initiative\n        address[] voters; // Addresses which voted on this initiative. Kept for reset purpose only\n        mapping (address => uint) funds; // Amounts funded by backers\n        mapping (address => bool) voted; // Whether the backer already voted\n        mapping (address => bool) vote; // Backer's vote\n        uint numberOfVotes; // A number of votes received so far after executor appears\n        uint totalFunds; // Total funds received by the initiative\n        bool closed; // Determines whether initiative is closed\n    }\n\n    uint lastInitiativeId = 0;\n\n    mapping (uint => Initiative) public initiative;\n\n    event InitiativeCreated(uint id);\n    event InitiativeCompleted(bool success);\n\n    function getInitiativeById (uint id) public view returns(\n        address initiator,\n        uint8 acceptance,\n        bytes20 contentHash,\n        address executor,\n        address[] backers,\n        uint totalFunds,\n        bool closed,\n        address[] voters,\n        bool[] votes\n    ) {\n        initiator = initiative[id].initiator;\n        acceptance = initiative[id].acceptance;\n        contentHash = initiative[id].contentHash;\n        executor = initiative[id].executor;\n        backers = initiative[id].backers;\n        totalFunds = initiative[id].totalFunds;\n        closed = initiative[id].closed;\n        voters = new address[](initiative[id].numberOfVotes);\n        votes = new bool[](initiative[id].numberOfVotes);\n        for (uint i = 0; i < initiative[id].numberOfVotes; ++i) {\n            voters[i] = initiative[id].voters[i];\n            votes[i] = initiative[id].vote[voters[i]];\n        }\n    }\n\n    function getBackerAmountByInitiativeId (uint id, address backer) public view returns(uint) {\n        return initiative[id].funds[backer];\n    }\n\n    /**\n     * @param contentHash Hash of the title/description.\n     * @param acceptance Percentage of voters needed to accept the executor's work.\n     * @return Created initiative ID.\n     */\n    function create (bytes20 contentHash, uint8 acceptance) public returns(uint) {\n        require(acceptance > 0 && acceptance <= 100);\n        uint id = ++lastInitiativeId;\n        initiative[id].initiator = msg.sender;\n        initiative[id].acceptance = acceptance;\n        initiative[id].contentHash = contentHash;\n        InitiativeCreated(id);\n        return id;\n    }\n\n    /**\n     * Mark the initiative completed by the sender.\n     * @param id Initiative to complete.\n     */\n    function complete (uint id) public {\n        require(initiative[id].initiator != address(0)); // initiative must exists\n        require(initiative[id].totalFunds > 0); // cannot mark \"empty\" initiative as completed\n        require(initiative[id].executor == address(0)); // cannot mark completed initiative again\n        initiative[id].executor = msg.sender;\n    }\n\n    /**\n     * Add funds to initiative.\n     * @param id Initiative to back.\n     */\n    function back (uint id) public payable {\n        require(msg.value > 0); // backer should really transfer some value\n        require(initiative[id].initiator != address(0)); // initiative must exists\n        require(initiative[id].executor == address(0)); // cannot back executed initiative\n        require(initiative[id].closed == false); // cannot back closed initiative\n        if (initiative[id].funds[msg.sender] == 0) { // if backed for the first time\n            initiative[id].backers.push(msg.sender); // add to the list of backers\n        }\n        initiative[id].funds[msg.sender] += msg.value;\n        initiative[id].totalFunds += msg.value;\n    }\n\n    /**\n     * Vote on executor's job.\n     * @param id Initiative to vote on.\n     * @param isPositive Determine whether the vote is positive.\n     */\n    function vote (uint id, bool isPositive) public {\n        Initiative storage ini = initiative[id];\n        require(initiative[id].initiator != address(0)); // initiative must exists\n        require(ini.closed == false); // cannot vote on closed initiatives\n        require(ini.executor != address(0)); // must vote only when executor is set\n        require(ini.voted[msg.sender] == false); // cannot vote twice\n        require(ini.funds[msg.sender] > 0); // must backed at least something to vote\n        if (ini.numberOfVotes < ini.voters.length) {\n            ini.voters[ini.numberOfVotes] = msg.sender;\n        } else {\n            ini.voters.push(msg.sender);\n        }\n        ini.numberOfVotes += 1;\n        ini.voted[msg.sender] = true;\n        ini.vote[msg.sender] = isPositive;\n        onAfterVote(ini);\n    }\n\n    /**\n     * Check whether given initiative has enough votes to be closed or reverted.\n     */\n    function onAfterVote (Initiative storage ini) internal {\n        uint positiveFunds = 0;\n        uint negativeFunds = 0;\n        for (uint i = 0; i < ini.numberOfVotes; ++i) {\n            uint funds = ini.funds[ini.voters[i]];\n            if (ini.vote[ini.voters[i]]) {\n                positiveFunds += funds; // add to positive score\n            } else {\n                negativeFunds += funds;\n            }\n        }\n        if (100 * positiveFunds / ini.totalFunds >= ini.acceptance) {\n            completeInitiative(ini, true);\n        } else if (100 * negativeFunds / ini.totalFunds > 100 - ini.acceptance) {\n            completeInitiative(ini, false);\n        } else if (ini.numberOfVotes == ini.backers.length) {\n            completeInitiative(ini, false);\n        }\n    }\n\n    /**\n     * Complete initiative and fund the executor or rollback it to a voting state.\n     */\n    function completeInitiative (Initiative storage ini, bool success) internal {\n        if (success) {\n            ini.executor.transfer(ini.totalFunds);\n            ini.closed = true;\n        } else {\n            for (uint i = 0; i < ini.numberOfVotes; ++i) {\n                ini.voted[ini.voters[i]] = false;\n            }\n            ini.executor = address(0);\n            ini.numberOfVotes = 0;\n        }\n        InitiativeCompleted(success);\n    }\n\n}",
  "sourcePath": "Z:\\ZitRos\\Projects\\initiative-society\\src\\ethereum\\contracts\\Initiative.sol",
  "compiler": {
    "name": "solc",
    "version": "0.4.18+commit.9cf6e910.Emscripten.clang"
  },
  "schemaVersion": "1.0.1",
  "updatedAt": "2017-12-21T22:21:45.098Z"
}