{
  "contractName": "Initiatives",
  "abi": [
    {
      "constant": true,
      "inputs": [
        {
          "name": "id",
          "type": "uint256"
        }
      ],
      "name": "getInitiativeById",
      "outputs": [
        {
          "name": "",
          "type": "address"
        },
        {
          "name": "",
          "type": "uint8"
        },
        {
          "name": "",
          "type": "bytes20"
        },
        {
          "name": "",
          "type": "address"
        },
        {
          "name": "",
          "type": "address[]"
        },
        {
          "name": "",
          "type": "uint256"
        },
        {
          "name": "",
          "type": "bool"
        }
      ],
      "payable": false,
      "stateMutability": "view",
      "type": "function"
    },
    {
      "inputs": [
        {
          "name": "id",
          "type": "uint256"
        }
      ],
      "payable": true,
      "stateMutability": "payable",
      "type": "function",
      "constant": false,
      "name": "backInitiative",
      "outputs": [
        {
          "name": "initiator",
          "type": "address"
        },
        {
          "name": "acceptance",
          "type": "uint8"
        },
        {
          "name": "contentHash",
          "type": "bytes20"
        },
        {
          "name": "executor",
          "type": "address"
        },
        {
          "name": "totalFunds",
          "type": "uint256"
        },
        {
          "name": "closed",
          "type": "bool"
        }
      ]
    },
    {
      "constant": true,
      "inputs": [
        {
          "name": "",
          "type": "uint256"
        },
        {
          "name": "acceptance",
          "type": "uint8"
        }
      ],
      "name": "initiative",
      "outputs": [
        {
          "name": "initiator",
          "type": "address"
        },
        {
          "name": "acceptance",
          "type": "uint8"
        },
        {
          "name": "contentHash",
          "type": "bytes20"
        },
        {
          "name": "executor",
          "type": "address"
        },
        {
          "name": "totalFunds",
          "type": "uint256"
        },
        {
          "name": "closed",
          "type": "bool"
        }
      ],
      "payable": false,
      "stateMutability": "view",
      "type": "function"
    },
    {
      "constant": false,
      "inputs": [
        {
          "name": "contentHash",
          "type": "bytes20"
        },
        {
          "name": "acceptance",
          "type": "uint8"
        }
      ],
      "name": "createInitiative",
      "outputs": [
        {
          "name": "",
          "type": "uint256"
        }
      ],
      "payable": false,
      "stateMutability": "nonpayable",
      "type": "function"
    },
    {
      "inputs": [
        {
          "indexed": false,
          "name": "id",
          "type": "uint256"
        },
        {
          "name": "backer",
          "type": "address"
        }
      ],
      "payable": false,
      "stateMutability": "view",
      "type": "function",
      "anonymous": false,
      "name": "getBackerAmountByInitiativeId",
      "constant": true,
      "outputs": [
        {
          "name": "",
          "type": "uint256"
        }
      ]
    },
    {
      "anonymous": false,
      "inputs": [
        {
          "indexed": false,
          "name": "id",
          "type": "uint256"
        }
      ],
      "name": "InitiativeCreated",
      "type": "event"
    }
  ],
  "bytecode": "0x606060405260008055341561001357600080fd5b610a3c806100226000396000f30060606040526004361061006d576000357c0100000000000000000000000000000000000000000000000000000000900463ffffffff168063168a79a21461007257806354f7ff6b146101945780637e634edc146101ac578063b1adb0c414610286578063f82a3cb9146102d8575b600080fd5b341561007d57600080fd5b610093600480803590602001909190505061032e565b604051808873ffffffffffffffffffffffffffffffffffffffff1673ffffffffffffffffffffffffffffffffffffffff1681526020018760ff1660ff168152602001866bffffffffffffffffffffffff19166bffffffffffffffffffffffff191681526020018573ffffffffffffffffffffffffffffffffffffffff1673ffffffffffffffffffffffffffffffffffffffff1681526020018060200184815260200183151515158152602001828103825285818151815260200191508051906020019060200280838360005b8381101561017a57808201518184015260208101905061015f565b505050509050019850505050505050505060405180910390f35b6101aa60048080359060200190919050506104f3565b005b34156101b757600080fd5b6101cd6004808035906020019091905050610777565b604051808773ffffffffffffffffffffffffffffffffffffffff1673ffffffffffffffffffffffffffffffffffffffff1681526020018660ff1660ff168152602001856bffffffffffffffffffffffff19166bffffffffffffffffffffffff191681526020018473ffffffffffffffffffffffffffffffffffffffff1673ffffffffffffffffffffffffffffffffffffffff16815260200183815260200182151515158152602001965050505050505060405180910390f35b341561029157600080fd5b6102c260048080356bffffffffffffffffffffffff191690602001909190803560ff16906020019091905050610826565b6040518082815260200191505060405180910390f35b34156102e357600080fd5b610318600480803590602001909190803573ffffffffffffffffffffffffffffffffffffffff1690602001909190505061094d565b6040518082815260200191505060405180910390f35b60008060008061033c6109ab565b6000806001600089815260200190815260200160002060000160009054906101000a900473ffffffffffffffffffffffffffffffffffffffff16600160008a815260200190815260200160002060000160149054906101000a900460ff16600160008b815260200190815260200160002060010160009054906101000a90046c0100000000000000000000000002600160008c815260200190815260200160002060020160009054906101000a900473ffffffffffffffffffffffffffffffffffffffff16600160008d8152602001908152602001600020600301600160008e815260200190815260200160002060050154600160008f815260200190815260200160002060060160009054906101000a900460ff16828054806020026020016040519081016040528092919081815260200182805480156104d357602002820191906000526020600020905b8160009054906101000a900473ffffffffffffffffffffffffffffffffffffffff1673ffffffffffffffffffffffffffffffffffffffff1681526020019060010190808311610489575b505050505092509650965096509650965096509650919395979092949650565b60003411151561050257600080fd5b600073ffffffffffffffffffffffffffffffffffffffff166001600083815260200190815260200160002060000160009054906101000a900473ffffffffffffffffffffffffffffffffffffffff1673ffffffffffffffffffffffffffffffffffffffff161415151561057457600080fd5b600073ffffffffffffffffffffffffffffffffffffffff166001600083815260200190815260200160002060020160009054906101000a900473ffffffffffffffffffffffffffffffffffffffff1673ffffffffffffffffffffffffffffffffffffffff161415156105e557600080fd5b600015156001600083815260200190815260200160002060060160009054906101000a900460ff16151514151561061b57600080fd5b60006001600083815260200190815260200160002060040160003373ffffffffffffffffffffffffffffffffffffffff1673ffffffffffffffffffffffffffffffffffffffff1681526020019081526020016000205414156106ef5760016000828152602001908152602001600020600301805480600101828161069f91906109bf565b9160005260206000209001600033909190916101000a81548173ffffffffffffffffffffffffffffffffffffffff021916908373ffffffffffffffffffffffffffffffffffffffff160217905550505b346001600083815260200190815260200160002060040160003373ffffffffffffffffffffffffffffffffffffffff1673ffffffffffffffffffffffffffffffffffffffff1681526020019081526020016000206000828254019250508190555034600160008381526020019081526020016000206005016000828254019250508190555050565b60016020528060005260406000206000915090508060000160009054906101000a900473ffffffffffffffffffffffffffffffffffffffff16908060000160149054906101000a900460ff16908060010160009054906101000a90046c0100000000000000000000000002908060020160009054906101000a900473ffffffffffffffffffffffffffffffffffffffff16908060050154908060060160009054906101000a900460ff16905086565b60008060008081546001019190508190559050336001600083815260200190815260200160002060000160006101000a81548173ffffffffffffffffffffffffffffffffffffffff021916908373ffffffffffffffffffffffffffffffffffffffff160217905550826001600083815260200190815260200160002060000160146101000a81548160ff021916908360ff160217905550836001600083815260200190815260200160002060010160006101000a81548173ffffffffffffffffffffffffffffffffffffffff02191690836c01000000000000000000000000900402179055507ff88f8514cc40c025c86ba0fb01253452b0fc0bc65216b3653a4fd573451b36b4816040518082815260200191505060405180910390a18091505092915050565b60006001600084815260200190815260200160002060040160008373ffffffffffffffffffffffffffffffffffffffff1673ffffffffffffffffffffffffffffffffffffffff16815260200190815260200160002054905092915050565b602060405190810160405280600081525090565b8154818355818115116109e6578183600052602060002091820191016109e591906109eb565b5b505050565b610a0d91905b80821115610a095760008160009055506001016109f1565b5090565b905600a165627a7a7230582025cbc247a23d2a1af4939e367aad39b679a7f8b0d7d49361975f0b141d0c11520029",
  "source": "pragma solidity ^0.4.16;\n\n/**\n * Contract that handles initiatives and all the work around.\n * This contract holds a total balance which is distributed across the initiatives in determined\n * ways by this contract.\n */\ncontract Initiatives {\n\n    struct Initiative {\n        address initiator; // A guy who created this initiative\n        uint8 acceptance; // 1..100% (as 0..100) % of votes for this initiative to be accepted\n        bytes20 contentHash; // SHA-1 hash of title and description of an initiative\n        address executor; // A person who completed the initiative and uploaded the evidence\n        address[] backers; // Addresses which backed this initiative\n        mapping (address => uint) funds; // Amounts funded by backers\n        uint totalFunds; // Total funds received by the initiative\n        bool closed; // Determines whether initiative is closed\n    }\n\n    uint lastInitiativeId = 0;\n\n    mapping (uint => Initiative) public initiative;\n\n    event InitiativeCreated(uint id);\n\n    function getInitiativeById (uint id) public view returns(\n        address, uint8, bytes20, address, address[], uint, bool\n    ) {\n        return (\n        initiative[id].initiator, initiative[id].acceptance, initiative[id].contentHash,\n        initiative[id].executor, initiative[id].backers, initiative[id].totalFunds,\n        initiative[id].closed\n        );\n    }\n\n    function getBackerAmountByInitiativeId (uint id, address backer) public view returns(uint) {\n        return initiative[id].funds[backer];\n    }\n\n    /**\n     * @param contentHash Hash of the title/description.\n     * @param acceptance Percentage of voters needed to accept the executor's work.\n     * @return Created initiative ID.\n     */\n    function createInitiative (bytes20 contentHash, uint8 acceptance) public returns(uint) {\n        uint id = ++lastInitiativeId;\n        initiative[id].initiator = msg.sender;\n        initiative[id].acceptance = acceptance;\n        initiative[id].contentHash = contentHash;\n        InitiativeCreated(id);\n        return id;\n    }\n\n    /**\n     * Add funds to initiative.\n     * @param id Initiative to back.\n     */\n    function backInitiative (uint id) public payable {\n        require(msg.value > 0); // backer should really transfer some value\n        require(initiative[id].initiator != address(0)); // initiative must exists\n        require(initiative[id].executor == address(0)); // cannot back executed initiative\n        require(initiative[id].closed == false); // cannot back closed initiative\n        if (initiative[id].funds[msg.sender] == 0) { // if backed for the first time\n            initiative[id].backers.push(msg.sender); // add to the list of backers\n        }\n        initiative[id].funds[msg.sender] += msg.value;\n        initiative[id].totalFunds += msg.value;\n    }\n\n}",
  "sourcePath": "Z:\\ZitRos\\Projects\\initiative-society\\src\\ethereum\\contracts\\Initiative.sol",
  "compiler": {
    "name": "solc",
    "version": "0.4.18+commit.9cf6e910.Emscripten.clang"
  },
  "schemaVersion": "1.0.1",
  "updatedAt": "2017-12-19T13:39:21.036Z"
}