{
  "contractName": "Initiatives",
  "abi": [
    {
      "constant": false,
      "inputs": [
        {
          "name": "contentHash",
          "type": "bytes20"
        },
        {
          "name": "acceptance",
          "type": "uint8"
        }
      ],
      "name": "create",
      "outputs": [
        {
          "name": "",
          "type": "uint256"
        }
      ],
      "payable": false,
      "stateMutability": "nonpayable",
      "type": "function"
    },
    {
      "constant": true,
      "inputs": [
        {
          "name": "id",
          "type": "uint256"
        }
      ],
      "name": "getInitiativeById",
      "outputs": [
        {
          "name": "initiator",
          "type": "address"
        },
        {
          "name": "acceptance",
          "type": "uint8"
        },
        {
          "name": "contentHash",
          "type": "bytes20"
        },
        {
          "name": "executor",
          "type": "address"
        },
        {
          "name": "backers",
          "type": "address[]"
        },
        {
          "name": "totalFunds",
          "type": "uint256"
        },
        {
          "name": "closed",
          "type": "bool"
        },
        {
          "name": "voters",
          "type": "address[]"
        },
        {
          "name": "votes",
          "type": "bool[]"
        },
        {
          "name": "funds",
          "type": "uint256[]"
        }
      ],
      "payable": false,
      "stateMutability": "view",
      "type": "function"
    },
    {
      "constant": false,
      "inputs": [
        {
          "name": "id",
          "type": "uint256"
        }
      ],
      "name": "back",
      "outputs": [],
      "payable": true,
      "stateMutability": "payable",
      "type": "function"
    },
    {
      "constant": true,
      "inputs": [
        {
          "name": "",
          "type": "uint256"
        }
      ],
      "name": "initiative",
      "outputs": [
        {
          "name": "acceptance",
          "type": "uint8"
        },
        {
          "name": "contentHash",
          "type": "bytes20"
        },
        {
          "name": "initiator",
          "type": "address"
        },
        {
          "name": "executor",
          "type": "address"
        },
        {
          "name": "numberOfVotes",
          "type": "uint256"
        },
        {
          "name": "totalFunds",
          "type": "uint256"
        },
        {
          "name": "closed",
          "type": "bool"
        }
      ],
      "payable": false,
      "stateMutability": "view",
      "type": "function"
    },
    {
      "constant": false,
      "inputs": [
        {
          "name": "id",
          "type": "uint256"
        }
      ],
      "name": "complete",
      "outputs": [],
      "payable": false,
      "stateMutability": "nonpayable",
      "type": "function"
    },
    {
      "constant": false,
      "inputs": [
        {
          "name": "id",
          "type": "uint256"
        },
        {
          "name": "isPositive",
          "type": "bool"
        }
      ],
      "name": "vote",
      "outputs": [],
      "payable": false,
      "stateMutability": "nonpayable",
      "type": "function"
    },
    {
      "anonymous": false,
      "inputs": [
        {
          "indexed": false,
          "name": "id",
          "type": "uint256"
        }
      ],
      "name": "InitiativeCreated",
      "type": "event"
    },
    {
      "anonymous": false,
      "inputs": [
        {
          "indexed": false,
          "name": "success",
          "type": "bool"
        }
      ],
      "name": "InitiativeCompleted",
      "type": "event"
    }
  ],
  "bytecode": "0x606060405260008055341561001357600080fd5b6116b9806100226000396000f300606060405260043610610078576000357c0100000000000000000000000000000000000000000000000000000000900463ffffffff16806309069be61461007d578063168a79a2146100cf5780634a562885146102c95780637e634edc146102e1578063971d852f146103c2578063c9d27afe146103e5575b600080fd5b341561008857600080fd5b6100b960048080356bffffffffffffffffffffffff191690602001909190803560ff16906020019091905050610413565b6040518082815260200191505060405180910390f35b34156100da57600080fd5b6100f0600480803590602001909190505061055c565b604051808b73ffffffffffffffffffffffffffffffffffffffff1673ffffffffffffffffffffffffffffffffffffffff1681526020018a60ff1660ff168152602001896bffffffffffffffffffffffff19166bffffffffffffffffffffffff191681526020018873ffffffffffffffffffffffffffffffffffffffff1673ffffffffffffffffffffffffffffffffffffffff168152602001806020018781526020018615151515815260200180602001806020018060200185810385528b818151815260200191508051906020019060200280838360005b838110156101e35780820151818401526020810190506101c8565b50505050905001858103845288818151815260200191508051906020019060200280838360005b8381101561022557808201518184015260208101905061020a565b50505050905001858103835287818151815260200191508051906020019060200280838360005b8381101561026757808201518184015260208101905061024c565b50505050905001858103825286818151815260200191508051906020019060200280838360005b838110156102a957808201518184015260208101905061028e565b505050509050019e50505050505050505050505050505060405180910390f35b6102df6004808035906020019091905050610a33565b005b34156102ec57600080fd5b6103026004808035906020019091905050610cb7565b604051808860ff1660ff168152602001876bffffffffffffffffffffffff19166bffffffffffffffffffffffff191681526020018673ffffffffffffffffffffffffffffffffffffffff1673ffffffffffffffffffffffffffffffffffffffff1681526020018573ffffffffffffffffffffffffffffffffffffffff1673ffffffffffffffffffffffffffffffffffffffff1681526020018481526020018381526020018215151515815260200197505050505050505060405180910390f35b34156103cd57600080fd5b6103e36004808035906020019091905050610d6c565b005b34156103f057600080fd5b61041160048080359060200190919080351515906020019091905050610ecc565b005b60008060008360ff1611801561042d575060648360ff1611155b151561043857600080fd5b60008081546001019190508190559050336001600083815260200190815260200160002060010160006101000a81548173ffffffffffffffffffffffffffffffffffffffff021916908373ffffffffffffffffffffffffffffffffffffffff160217905550826001600083815260200190815260200160002060000160006101000a81548160ff021916908360ff160217905550836001600083815260200190815260200160002060000160016101000a81548173ffffffffffffffffffffffffffffffffffffffff02191690836c01000000000000000000000000900402179055507ff88f8514cc40c025c86ba0fb01253452b0fc0bc65216b3653a4fd573451b36b4816040518082815260200191505060405180910390a18091505092915050565b60008060008061056a611600565b600080610575611600565b61057d611614565b610585611628565b6000600160008d815260200190815260200160002060010160009054906101000a900473ffffffffffffffffffffffffffffffffffffffff169a50600160008d815260200190815260200160002060000160009054906101000a900460ff169950600160008d815260200190815260200160002060000160019054906101000a90046c01000000000000000000000000029850600160008d815260200190815260200160002060020160009054906101000a900473ffffffffffffffffffffffffffffffffffffffff169750600160008d81526020019081526020016000206003018054806020026020016040519081016040528092919081815260200182805480156106e757602002820191906000526020600020905b8160009054906101000a900473ffffffffffffffffffffffffffffffffffffffff1673ffffffffffffffffffffffffffffffffffffffff168152602001906001019080831161069d575b50505050509650600160008d8152602001908152602001600020600901549550600160008d8152602001908152602001600020600a0160009054906101000a900460ff169450600160008d8152602001908152602001600020600801546040518059106107515750595b90808252806020026020018201604052509350600160008d8152602001908152602001600020600801546040518059106107885750595b90808252806020026020018201604052509250600160008d8152602001908152602001600020600301805490506040518059106107c25750595b90808252806020026020018201604052509150600090505b600160008d81526020019081526020016000206008015481101561093657600160008d81526020019081526020016000206004018181548110151561081b57fe5b906000526020600020900160009054906101000a900473ffffffffffffffffffffffffffffffffffffffff16848281518110151561085557fe5b9060200190602002019073ffffffffffffffffffffffffffffffffffffffff16908173ffffffffffffffffffffffffffffffffffffffff1681525050600160008d8152602001908152602001600020600701600085838151811015156108b757fe5b9060200190602002015173ffffffffffffffffffffffffffffffffffffffff1673ffffffffffffffffffffffffffffffffffffffff16815260200190815260200160002060009054906101000a900460ff16838281518110151561091757fe5b90602001906020020190151590811515815250508060010190506107da565b600090505b600160008d815260200190815260200160002060030180549050811015610a2557600160008d81526020019081526020016000206005016000600160008f81526020019081526020016000206003018381548110151561099757fe5b906000526020600020900160009054906101000a900473ffffffffffffffffffffffffffffffffffffffff1673ffffffffffffffffffffffffffffffffffffffff1673ffffffffffffffffffffffffffffffffffffffff168152602001908152602001600020548282815181101515610a0c57fe5b906020019060200201818152505080600101905061093b565b509193959799509193959799565b600034111515610a4257600080fd5b600073ffffffffffffffffffffffffffffffffffffffff166001600083815260200190815260200160002060010160009054906101000a900473ffffffffffffffffffffffffffffffffffffffff1673ffffffffffffffffffffffffffffffffffffffff1614151515610ab457600080fd5b600073ffffffffffffffffffffffffffffffffffffffff166001600083815260200190815260200160002060020160009054906101000a900473ffffffffffffffffffffffffffffffffffffffff1673ffffffffffffffffffffffffffffffffffffffff16141515610b2557600080fd5b6000151560016000838152602001908152602001600020600a0160009054906101000a900460ff161515141515610b5b57600080fd5b60006001600083815260200190815260200160002060050160003373ffffffffffffffffffffffffffffffffffffffff1673ffffffffffffffffffffffffffffffffffffffff168152602001908152602001600020541415610c2f57600160008281526020019081526020016000206003018054806001018281610bdf919061163c565b9160005260206000209001600033909190916101000a81548173ffffffffffffffffffffffffffffffffffffffff021916908373ffffffffffffffffffffffffffffffffffffffff160217905550505b346001600083815260200190815260200160002060050160003373ffffffffffffffffffffffffffffffffffffffff1673ffffffffffffffffffffffffffffffffffffffff1681526020019081526020016000206000828254019250508190555034600160008381526020019081526020016000206009016000828254019250508190555050565b60016020528060005260406000206000915090508060000160009054906101000a900460ff16908060000160019054906101000a90046c0100000000000000000000000002908060010160009054906101000a900473ffffffffffffffffffffffffffffffffffffffff16908060020160009054906101000a900473ffffffffffffffffffffffffffffffffffffffff169080600801549080600901549080600a0160009054906101000a900460ff16905087565b600073ffffffffffffffffffffffffffffffffffffffff166001600083815260200190815260200160002060010160009054906101000a900473ffffffffffffffffffffffffffffffffffffffff1673ffffffffffffffffffffffffffffffffffffffff1614151515610dde57600080fd5b60006001600083815260200190815260200160002060090154111515610e0357600080fd5b600073ffffffffffffffffffffffffffffffffffffffff166001600083815260200190815260200160002060020160009054906101000a900473ffffffffffffffffffffffffffffffffffffffff1673ffffffffffffffffffffffffffffffffffffffff16141515610e7457600080fd5b336001600083815260200190815260200160002060020160006101000a81548173ffffffffffffffffffffffffffffffffffffffff021916908373ffffffffffffffffffffffffffffffffffffffff16021790555050565b6000600160008481526020019081526020016000209050600073ffffffffffffffffffffffffffffffffffffffff166001600085815260200190815260200160002060010160009054906101000a900473ffffffffffffffffffffffffffffffffffffffff1673ffffffffffffffffffffffffffffffffffffffff1614151515610f5557600080fd5b6000151581600a0160009054906101000a900460ff161515141515610f7957600080fd5b600073ffffffffffffffffffffffffffffffffffffffff168160020160009054906101000a900473ffffffffffffffffffffffffffffffffffffffff1673ffffffffffffffffffffffffffffffffffffffff1614151515610fd957600080fd5b600015158160060160003373ffffffffffffffffffffffffffffffffffffffff1673ffffffffffffffffffffffffffffffffffffffff16815260200190815260200160002060009054906101000a900460ff16151514151561103a57600080fd5b60008160050160003373ffffffffffffffffffffffffffffffffffffffff1673ffffffffffffffffffffffffffffffffffffffff1681526020019081526020016000205411151561108a57600080fd5b80600401805490508160080154101561110157338160040182600801548154811015156110b357fe5b906000526020600020900160006101000a81548173ffffffffffffffffffffffffffffffffffffffff021916908373ffffffffffffffffffffffffffffffffffffffff160217905550611167565b806004018054806001018281611117919061163c565b9160005260206000209001600033909190916101000a81548173ffffffffffffffffffffffffffffffffffffffff021916908373ffffffffffffffffffffffffffffffffffffffff160217905550505b6001816008016000828254019250508190555060018160060160003373ffffffffffffffffffffffffffffffffffffffff1673ffffffffffffffffffffffffffffffffffffffff16815260200190815260200160002060006101000a81548160ff021916908315150217905550818160070160003373ffffffffffffffffffffffffffffffffffffffff1673ffffffffffffffffffffffffffffffffffffffff16815260200190815260200160002060006101000a81548160ff0219169083151502179055506112368161123b565b505050565b6000806000806000935060009250600091505b846008015482101561138557846005016000866004018481548110151561127157fe5b906000526020600020900160009054906101000a900473ffffffffffffffffffffffffffffffffffffffff1673ffffffffffffffffffffffffffffffffffffffff1673ffffffffffffffffffffffffffffffffffffffff16815260200190815260200160002054905084600701600086600401848154811015156112f157fe5b906000526020600020900160009054906101000a900473ffffffffffffffffffffffffffffffffffffffff1673ffffffffffffffffffffffffffffffffffffffff1673ffffffffffffffffffffffffffffffffffffffff16815260200190815260200160002060009054906101000a900460ff161561137457808401935061137a565b80830192505b81600101915061124e565b8460000160009054906101000a900460ff1660ff168560090154856064028115156113ac57fe5b041015156113c4576113bf85600161142d565b611426565b8460000160009054906101000a900460ff1660640360ff168560090154846064028115156113ee57fe5b0411156114055761140085600061142d565b611425565b8460030180549050856008015414156114245761142385600061142d565b5b5b5b5050505050565b600081156114bf578260020160009054906101000a900473ffffffffffffffffffffffffffffffffffffffff1673ffffffffffffffffffffffffffffffffffffffff166108fc84600901549081150290604051600060405180830381858888f19350505050151561149d57600080fd5b600183600a0160006101000a81548160ff0219169083151502179055506115c0565b600090505b826008015481101561157157600083600601600085600401848154811015156114e957fe5b906000526020600020900160009054906101000a900473ffffffffffffffffffffffffffffffffffffffff1673ffffffffffffffffffffffffffffffffffffffff1673ffffffffffffffffffffffffffffffffffffffff16815260200190815260200160002060006101000a81548160ff0219169083151502179055508060010190506114c4565b60008360020160006101000a81548173ffffffffffffffffffffffffffffffffffffffff021916908373ffffffffffffffffffffffffffffffffffffffff160217905550600083600801819055505b7f22012d07e99199133eb139cf2161ceb1aba5a6834cb6920cb4aa85a90dc79f8a82604051808215151515815260200191505060405180910390a1505050565b602060405190810160405280600081525090565b602060405190810160405280600081525090565b602060405190810160405280600081525090565b815481835581811511611663578183600052602060002091820191016116629190611668565b5b505050565b61168a91905b8082111561168657600081600090555060010161166e565b5090565b905600a165627a7a72305820c8b0e0f76b227c3e067c4740f0e68676cdc69cd6debd985c594a878c19d9a79c0029",
  "source": "pragma solidity ^0.4.16;\n\n/**\n * Contract that handles initiatives and all the work around.\n * This contract holds a total balance which is distributed across the initiatives in determined\n * ways by this contract.\n */\ncontract Initiatives {\n\n    struct Initiative {\n        uint8 acceptance; // 1..100% (as 0..100) % of votes for this initiative to be accepted\n        bytes20 contentHash; // SHA-1 hash of title and description of an initiative\n        address initiator; // A guy who created this initiative\n        address executor; // A person who completed the initiative and uploaded the evidence\n        address[] backers; // Addresses which backed this initiative\n        address[] voters; // Addresses which voted on this initiative\n        mapping (address => uint) funds; // Amounts funded by backers\n        mapping (address => bool) voted; // Whether the backer already voted\n        mapping (address => bool) vote; // Backer's vote\n        uint numberOfVotes; // A number of votes received so far after executor appears\n        uint totalFunds; // Total funds received by the initiative\n        bool closed; // Determines whether initiative is closed\n    }\n\n    uint lastInitiativeId = 0;\n\n    mapping (uint => Initiative) public initiative;\n\n    event InitiativeCreated(uint id);\n    event InitiativeCompleted(bool success);\n\n    /**\n     * Return everything about initiative in one call.\n     * @param id Initiative to return.\n     */\n    function getInitiativeById (uint id) public view returns(\n        address initiator,\n        uint8 acceptance,\n        bytes20 contentHash,\n        address executor,\n        address[] backers,\n        uint totalFunds,\n        bool closed,\n        address[] voters,\n        bool[] votes,\n        uint[] funds\n    ) {\n        uint i;\n        initiator = initiative[id].initiator;\n        acceptance = initiative[id].acceptance;\n        contentHash = initiative[id].contentHash;\n        executor = initiative[id].executor;\n        backers = initiative[id].backers;\n        totalFunds = initiative[id].totalFunds;\n        closed = initiative[id].closed;\n        voters = new address[](initiative[id].numberOfVotes);\n        votes = new bool[](initiative[id].numberOfVotes);\n        funds = new uint[](initiative[id].backers.length);\n        for (i = 0; i < initiative[id].numberOfVotes; ++i) {\n            voters[i] = initiative[id].voters[i];\n            votes[i] = initiative[id].vote[voters[i]];\n        }\n        for (i = 0; i < initiative[id].backers.length; ++i) {\n            funds[i] = initiative[id].funds[initiative[id].backers[i]];\n        }\n    }\n\n    /**\n     * @param contentHash Hash of the title/description.\n     * @param acceptance Percentage of voters needed to accept the executor's work.\n     * @return Created initiative ID.\n     */\n    function create (bytes20 contentHash, uint8 acceptance) public returns(uint) {\n        require(acceptance > 0 && acceptance <= 100);\n        uint id = ++lastInitiativeId;\n        initiative[id].initiator = msg.sender;\n        initiative[id].acceptance = acceptance;\n        initiative[id].contentHash = contentHash;\n        InitiativeCreated(id);\n        return id;\n    }\n\n    /**\n     * Mark the initiative completed by the sender.\n     * @param id Initiative to complete.\n     */\n    function complete (uint id) public {\n        require(initiative[id].initiator != address(0)); // initiative must exists\n        require(initiative[id].totalFunds > 0); // cannot mark \"empty\" initiative as completed\n        require(initiative[id].executor == address(0)); // cannot mark completed initiative again\n        initiative[id].executor = msg.sender;\n    }\n\n    /**\n     * Add funds to initiative.\n     * @param id Initiative to back.\n     */\n    function back (uint id) public payable {\n        require(msg.value > 0); // backer should really transfer some value\n        require(initiative[id].initiator != address(0)); // initiative must exists\n        require(initiative[id].executor == address(0)); // cannot back executed initiative\n        require(initiative[id].closed == false); // cannot back closed initiative\n        if (initiative[id].funds[msg.sender] == 0) { // if backed for the first time\n            initiative[id].backers.push(msg.sender); // add to the list of backers\n        }\n        initiative[id].funds[msg.sender] += msg.value;\n        initiative[id].totalFunds += msg.value;\n    }\n\n    /**\n     * Vote on executor's job.\n     * @param id Initiative to vote on.\n     * @param isPositive Determine whether the vote is positive.\n     */\n    function vote (uint id, bool isPositive) public {\n        Initiative storage ini = initiative[id];\n        require(initiative[id].initiator != address(0)); // initiative must exists\n        require(ini.closed == false); // cannot vote on closed initiatives\n        require(ini.executor != address(0)); // must vote only when executor is set\n        require(ini.voted[msg.sender] == false); // cannot vote twice\n        require(ini.funds[msg.sender] > 0); // must backed at least something to vote\n        if (ini.numberOfVotes < ini.voters.length) {\n            ini.voters[ini.numberOfVotes] = msg.sender;\n        } else {\n            ini.voters.push(msg.sender);\n        }\n        ini.numberOfVotes += 1;\n        ini.voted[msg.sender] = true;\n        ini.vote[msg.sender] = isPositive;\n        onAfterVote(ini);\n    }\n\n    /**\n     * Check whether given initiative has enough votes to be closed or reverted.\n     */\n    function onAfterVote (Initiative storage ini) internal {\n        uint positiveFunds = 0;\n        uint negativeFunds = 0;\n        for (uint i = 0; i < ini.numberOfVotes; ++i) {\n            uint funds = ini.funds[ini.voters[i]];\n            if (ini.vote[ini.voters[i]]) {\n                positiveFunds += funds; // add to positive score\n            } else {\n                negativeFunds += funds;\n            }\n        }\n        if (100 * positiveFunds / ini.totalFunds >= ini.acceptance) {\n            completeInitiative(ini, true);\n        } else if (100 * negativeFunds / ini.totalFunds > 100 - ini.acceptance) {\n            completeInitiative(ini, false);\n        } else if (ini.numberOfVotes == ini.backers.length) {\n            completeInitiative(ini, false);\n        }\n    }\n\n    /**\n     * Complete initiative and fund the executor or rollback it to a voting state.\n     */\n    function completeInitiative (Initiative storage ini, bool success) internal {\n        if (success) {\n            ini.executor.transfer(ini.totalFunds);\n            ini.closed = true;\n        } else {\n            for (uint i = 0; i < ini.numberOfVotes; ++i) {\n                ini.voted[ini.voters[i]] = false;\n            }\n            ini.executor = address(0);\n            ini.numberOfVotes = 0;\n        }\n        InitiativeCompleted(success);\n    }\n\n}",
  "sourcePath": "Z:\\ZitRos\\Projects\\initiative-society\\src\\ethereum\\contracts\\Initiative.sol",
  "compiler": {
    "name": "solc",
    "version": "0.4.18+commit.9cf6e910.Emscripten.clang"
  },
  "schemaVersion": "1.0.1",
  "updatedAt": "2017-12-21T23:20:29.400Z"
}