{
  "contractName": "Initiatives",
  "abi": [
    {
      "constant": false,
      "inputs": [
        {
          "name": "contentHash",
          "type": "bytes20"
        },
        {
          "name": "acceptance",
          "type": "uint8"
        }
      ],
      "name": "create",
      "outputs": [
        {
          "name": "",
          "type": "uint256"
        }
      ],
      "payable": false,
      "stateMutability": "nonpayable",
      "type": "function"
    },
    {
      "constant": true,
      "inputs": [
        {
          "name": "id",
          "type": "uint256"
        }
      ],
      "name": "getInitiativeById",
      "outputs": [
        {
          "name": "initiator",
          "type": "address"
        },
        {
          "name": "acceptance",
          "type": "uint8"
        },
        {
          "name": "contentHash",
          "type": "bytes20"
        },
        {
          "name": "executor",
          "type": "address"
        },
        {
          "name": "backers",
          "type": "address[]"
        },
        {
          "name": "totalFunds",
          "type": "uint256"
        },
        {
          "name": "closed",
          "type": "bool"
        },
        {
          "name": "voters",
          "type": "address[]"
        },
        {
          "name": "votes",
          "type": "bool[]"
        },
        {
          "name": "funds",
          "type": "uint256[]"
        }
      ],
      "payable": false,
      "stateMutability": "view",
      "type": "function"
    },
    {
      "constant": true,
      "inputs": [],
      "name": "getOpenedInitiativesIds",
      "outputs": [
        {
          "name": "openedInitiativesIds",
          "type": "uint256[]"
        }
      ],
      "payable": false,
      "stateMutability": "view",
      "type": "function"
    },
    {
      "constant": false,
      "inputs": [
        {
          "name": "id",
          "type": "uint256"
        }
      ],
      "name": "back",
      "outputs": [],
      "payable": true,
      "stateMutability": "payable",
      "type": "function"
    },
    {
      "constant": true,
      "inputs": [
        {
          "name": "",
          "type": "uint256"
        }
      ],
      "name": "initiative",
      "outputs": [
        {
          "name": "acceptance",
          "type": "uint8"
        },
        {
          "name": "contentHash",
          "type": "bytes20"
        },
        {
          "name": "initiator",
          "type": "address"
        },
        {
          "name": "executor",
          "type": "address"
        },
        {
          "name": "numberOfVotes",
          "type": "uint256"
        },
        {
          "name": "totalFunds",
          "type": "uint256"
        },
        {
          "name": "closed",
          "type": "bool"
        }
      ],
      "payable": false,
      "stateMutability": "view",
      "type": "function"
    },
    {
      "constant": false,
      "inputs": [
        {
          "name": "id",
          "type": "uint256"
        }
      ],
      "name": "complete",
      "outputs": [],
      "payable": false,
      "stateMutability": "nonpayable",
      "type": "function"
    },
    {
      "constant": false,
      "inputs": [
        {
          "name": "id",
          "type": "uint256"
        },
        {
          "name": "isPositive",
          "type": "bool"
        }
      ],
      "name": "vote",
      "outputs": [],
      "payable": false,
      "stateMutability": "nonpayable",
      "type": "function"
    },
    {
      "anonymous": false,
      "inputs": [
        {
          "indexed": false,
          "name": "id",
          "type": "uint256"
        }
      ],
      "name": "InitiativeCreated",
      "type": "event"
    },
    {
      "anonymous": false,
      "inputs": [
        {
          "indexed": false,
          "name": "success",
          "type": "bool"
        }
      ],
      "name": "InitiativeCompleted",
      "type": "event"
    }
  ],
  "bytecode": "0x606060405260008055341561001357600080fd5b611828806100226000396000f300606060405260043610610083576000357c0100000000000000000000000000000000000000000000000000000000900463ffffffff16806309069be614610088578063168a79a2146100da5780632a22383a146102d45780634a5628851461033e5780637e634edc14610356578063971d852f14610437578063c9d27afe1461045a575b600080fd5b341561009357600080fd5b6100c460048080356bffffffffffffffffffffffff191690602001909190803560ff16906020019091905050610488565b6040518082815260200191505060405180910390f35b34156100e557600080fd5b6100fb60048080359060200190919050506105d1565b604051808b73ffffffffffffffffffffffffffffffffffffffff1673ffffffffffffffffffffffffffffffffffffffff1681526020018a60ff1660ff168152602001896bffffffffffffffffffffffff19166bffffffffffffffffffffffff191681526020018873ffffffffffffffffffffffffffffffffffffffff1673ffffffffffffffffffffffffffffffffffffffff168152602001806020018781526020018615151515815260200180602001806020018060200185810385528b818151815260200191508051906020019060200280838360005b838110156101ee5780820151818401526020810190506101d3565b50505050905001858103845288818151815260200191508051906020019060200280838360005b83811015610230578082015181840152602081019050610215565b50505050905001858103835287818151815260200191508051906020019060200280838360005b83811015610272578082015181840152602081019050610257565b50505050905001858103825286818151815260200191508051906020019060200280838360005b838110156102b4578082015181840152602081019050610299565b505050509050019e50505050505050505050505050505060405180910390f35b34156102df57600080fd5b6102e7610aa8565b6040518080602001828103825283818151815260200191508051906020019060200280838360005b8381101561032a57808201518184015260208101905061030f565b505050509050019250505060405180910390f35b6103546004808035906020019091905050610ba2565b005b341561036157600080fd5b6103776004808035906020019091905050610e26565b604051808860ff1660ff168152602001876bffffffffffffffffffffffff19166bffffffffffffffffffffffff191681526020018673ffffffffffffffffffffffffffffffffffffffff1673ffffffffffffffffffffffffffffffffffffffff1681526020018573ffffffffffffffffffffffffffffffffffffffff1673ffffffffffffffffffffffffffffffffffffffff1681526020018481526020018381526020018215151515815260200197505050505050505060405180910390f35b341561044257600080fd5b6104586004808035906020019091905050610edb565b005b341561046557600080fd5b6104866004808035906020019091908035151590602001909190505061103b565b005b60008060008360ff161180156104a2575060648360ff1611155b15156104ad57600080fd5b60008081546001019190508190559050336001600083815260200190815260200160002060010160006101000a81548173ffffffffffffffffffffffffffffffffffffffff021916908373ffffffffffffffffffffffffffffffffffffffff160217905550826001600083815260200190815260200160002060000160006101000a81548160ff021916908360ff160217905550836001600083815260200190815260200160002060000160016101000a81548173ffffffffffffffffffffffffffffffffffffffff02191690836c01000000000000000000000000900402179055507ff88f8514cc40c025c86ba0fb01253452b0fc0bc65216b3653a4fd573451b36b4816040518082815260200191505060405180910390a18091505092915050565b6000806000806105df61176f565b6000806105ea61176f565b6105f2611783565b6105fa611797565b6000600160008d815260200190815260200160002060010160009054906101000a900473ffffffffffffffffffffffffffffffffffffffff169a50600160008d815260200190815260200160002060000160009054906101000a900460ff169950600160008d815260200190815260200160002060000160019054906101000a90046c01000000000000000000000000029850600160008d815260200190815260200160002060020160009054906101000a900473ffffffffffffffffffffffffffffffffffffffff169750600160008d815260200190815260200160002060030180548060200260200160405190810160405280929190818152602001828054801561075c57602002820191906000526020600020905b8160009054906101000a900473ffffffffffffffffffffffffffffffffffffffff1673ffffffffffffffffffffffffffffffffffffffff1681526020019060010190808311610712575b50505050509650600160008d8152602001908152602001600020600901549550600160008d8152602001908152602001600020600a0160009054906101000a900460ff169450600160008d8152602001908152602001600020600801546040518059106107c65750595b90808252806020026020018201604052509350600160008d8152602001908152602001600020600801546040518059106107fd5750595b90808252806020026020018201604052509250600160008d8152602001908152602001600020600301805490506040518059106108375750595b90808252806020026020018201604052509150600090505b600160008d8152602001908152602001600020600801548110156109ab57600160008d81526020019081526020016000206004018181548110151561089057fe5b906000526020600020900160009054906101000a900473ffffffffffffffffffffffffffffffffffffffff1684828151811015156108ca57fe5b9060200190602002019073ffffffffffffffffffffffffffffffffffffffff16908173ffffffffffffffffffffffffffffffffffffffff1681525050600160008d81526020019081526020016000206007016000858381518110151561092c57fe5b9060200190602002015173ffffffffffffffffffffffffffffffffffffffff1673ffffffffffffffffffffffffffffffffffffffff16815260200190815260200160002060009054906101000a900460ff16838281518110151561098c57fe5b906020019060200201901515908115158152505080600101905061084f565b600090505b600160008d815260200190815260200160002060030180549050811015610a9a57600160008d81526020019081526020016000206005016000600160008f815260200190815260200160002060030183815481101515610a0c57fe5b906000526020600020900160009054906101000a900473ffffffffffffffffffffffffffffffffffffffff1673ffffffffffffffffffffffffffffffffffffffff1673ffffffffffffffffffffffffffffffffffffffff168152602001908152602001600020548282815181101515610a8157fe5b90602001906020020181815250508060010190506109b0565b509193959799509193959799565b610ab0611797565b60008060009050600191505b60005482111515610b09576000151560016000848152602001908152602001600020600a0160009054906101000a900460ff1615151415610afe578060010190505b816001019150610abc565b80604051805910610b175750595b9080825280602002602001820160405250925060009050600191505b60005482111515610b9d576000151560016000848152602001908152602001600020600a0160009054906101000a900460ff1615151415610b9257818382815181101515610b7d57fe5b90602001906020020181815250508060010190505b816001019150610b33565b505090565b600034111515610bb157600080fd5b600073ffffffffffffffffffffffffffffffffffffffff166001600083815260200190815260200160002060010160009054906101000a900473ffffffffffffffffffffffffffffffffffffffff1673ffffffffffffffffffffffffffffffffffffffff1614151515610c2357600080fd5b600073ffffffffffffffffffffffffffffffffffffffff166001600083815260200190815260200160002060020160009054906101000a900473ffffffffffffffffffffffffffffffffffffffff1673ffffffffffffffffffffffffffffffffffffffff16141515610c9457600080fd5b6000151560016000838152602001908152602001600020600a0160009054906101000a900460ff161515141515610cca57600080fd5b60006001600083815260200190815260200160002060050160003373ffffffffffffffffffffffffffffffffffffffff1673ffffffffffffffffffffffffffffffffffffffff168152602001908152602001600020541415610d9e57600160008281526020019081526020016000206003018054806001018281610d4e91906117ab565b9160005260206000209001600033909190916101000a81548173ffffffffffffffffffffffffffffffffffffffff021916908373ffffffffffffffffffffffffffffffffffffffff160217905550505b346001600083815260200190815260200160002060050160003373ffffffffffffffffffffffffffffffffffffffff1673ffffffffffffffffffffffffffffffffffffffff1681526020019081526020016000206000828254019250508190555034600160008381526020019081526020016000206009016000828254019250508190555050565b60016020528060005260406000206000915090508060000160009054906101000a900460ff16908060000160019054906101000a90046c0100000000000000000000000002908060010160009054906101000a900473ffffffffffffffffffffffffffffffffffffffff16908060020160009054906101000a900473ffffffffffffffffffffffffffffffffffffffff169080600801549080600901549080600a0160009054906101000a900460ff16905087565b600073ffffffffffffffffffffffffffffffffffffffff166001600083815260200190815260200160002060010160009054906101000a900473ffffffffffffffffffffffffffffffffffffffff1673ffffffffffffffffffffffffffffffffffffffff1614151515610f4d57600080fd5b60006001600083815260200190815260200160002060090154111515610f7257600080fd5b600073ffffffffffffffffffffffffffffffffffffffff166001600083815260200190815260200160002060020160009054906101000a900473ffffffffffffffffffffffffffffffffffffffff1673ffffffffffffffffffffffffffffffffffffffff16141515610fe357600080fd5b336001600083815260200190815260200160002060020160006101000a81548173ffffffffffffffffffffffffffffffffffffffff021916908373ffffffffffffffffffffffffffffffffffffffff16021790555050565b6000600160008481526020019081526020016000209050600073ffffffffffffffffffffffffffffffffffffffff166001600085815260200190815260200160002060010160009054906101000a900473ffffffffffffffffffffffffffffffffffffffff1673ffffffffffffffffffffffffffffffffffffffff16141515156110c457600080fd5b6000151581600a0160009054906101000a900460ff1615151415156110e857600080fd5b600073ffffffffffffffffffffffffffffffffffffffff168160020160009054906101000a900473ffffffffffffffffffffffffffffffffffffffff1673ffffffffffffffffffffffffffffffffffffffff161415151561114857600080fd5b600015158160060160003373ffffffffffffffffffffffffffffffffffffffff1673ffffffffffffffffffffffffffffffffffffffff16815260200190815260200160002060009054906101000a900460ff1615151415156111a957600080fd5b60008160050160003373ffffffffffffffffffffffffffffffffffffffff1673ffffffffffffffffffffffffffffffffffffffff168152602001908152602001600020541115156111f957600080fd5b806004018054905081600801541015611270573381600401826008015481548110151561122257fe5b906000526020600020900160006101000a81548173ffffffffffffffffffffffffffffffffffffffff021916908373ffffffffffffffffffffffffffffffffffffffff1602179055506112d6565b80600401805480600101828161128691906117ab565b9160005260206000209001600033909190916101000a81548173ffffffffffffffffffffffffffffffffffffffff021916908373ffffffffffffffffffffffffffffffffffffffff160217905550505b6001816008016000828254019250508190555060018160060160003373ffffffffffffffffffffffffffffffffffffffff1673ffffffffffffffffffffffffffffffffffffffff16815260200190815260200160002060006101000a81548160ff021916908315150217905550818160070160003373ffffffffffffffffffffffffffffffffffffffff1673ffffffffffffffffffffffffffffffffffffffff16815260200190815260200160002060006101000a81548160ff0219169083151502179055506113a5816113aa565b505050565b6000806000806000935060009250600091505b84600801548210156114f45784600501600086600401848154811015156113e057fe5b906000526020600020900160009054906101000a900473ffffffffffffffffffffffffffffffffffffffff1673ffffffffffffffffffffffffffffffffffffffff1673ffffffffffffffffffffffffffffffffffffffff168152602001908152602001600020549050846007016000866004018481548110151561146057fe5b906000526020600020900160009054906101000a900473ffffffffffffffffffffffffffffffffffffffff1673ffffffffffffffffffffffffffffffffffffffff1673ffffffffffffffffffffffffffffffffffffffff16815260200190815260200160002060009054906101000a900460ff16156114e35780840193506114e9565b80830192505b8160010191506113bd565b8460000160009054906101000a900460ff1660ff1685600901548560640281151561151b57fe5b041015156115335761152e85600161159c565b611595565b8460000160009054906101000a900460ff1660640360ff1685600901548460640281151561155d57fe5b0411156115745761156f85600061159c565b611594565b8460030180549050856008015414156115935761159285600061159c565b5b5b5b5050505050565b6000811561162e578260020160009054906101000a900473ffffffffffffffffffffffffffffffffffffffff1673ffffffffffffffffffffffffffffffffffffffff166108fc84600901549081150290604051600060405180830381858888f19350505050151561160c57600080fd5b600183600a0160006101000a81548160ff02191690831515021790555061172f565b600090505b82600801548110156116e0576000836006016000856004018481548110151561165857fe5b906000526020600020900160009054906101000a900473ffffffffffffffffffffffffffffffffffffffff1673ffffffffffffffffffffffffffffffffffffffff1673ffffffffffffffffffffffffffffffffffffffff16815260200190815260200160002060006101000a81548160ff021916908315150217905550806001019050611633565b60008360020160006101000a81548173ffffffffffffffffffffffffffffffffffffffff021916908373ffffffffffffffffffffffffffffffffffffffff160217905550600083600801819055505b7f22012d07e99199133eb139cf2161ceb1aba5a6834cb6920cb4aa85a90dc79f8a82604051808215151515815260200191505060405180910390a1505050565b602060405190810160405280600081525090565b602060405190810160405280600081525090565b602060405190810160405280600081525090565b8154818355818115116117d2578183600052602060002091820191016117d191906117d7565b5b505050565b6117f991905b808211156117f55760008160009055506001016117dd565b5090565b905600a165627a7a72305820f0c1feccb75e54a60a489438592061882624c70acd39766595255c08483d4dfd0029",
  "source": "pragma solidity ^0.4.16;\r\n\r\n/**\r\n * Contract that handles initiatives and all the work around.\r\n * This contract holds a total balance which is distributed across the initiatives in determined\r\n * ways by this contract.\r\n */\r\ncontract Initiatives {\r\n\r\n    struct Initiative {\r\n        uint8 acceptance; // 1..100% (as 0..100) % of votes for this initiative to be accepted\r\n        bytes20 contentHash; // SHA-1 hash of title and description of an initiative\r\n        address initiator; // A guy who created this initiative\r\n        address executor; // A person who completed the initiative and uploaded the evidence\r\n        address[] backers; // Addresses which backed this initiative\r\n        address[] voters; // Addresses which voted on this initiative\r\n        mapping (address => uint) funds; // Amounts funded by backers\r\n        mapping (address => bool) voted; // Whether the backer already voted\r\n        mapping (address => bool) vote; // Backer's vote\r\n        uint numberOfVotes; // A number of votes received so far after executor appears\r\n        uint totalFunds; // Total funds received by the initiative\r\n        bool closed; // Determines whether initiative is closed\r\n    }\r\n\r\n    uint lastInitiativeId = 0;\r\n\r\n    mapping (uint => Initiative) public initiative;\r\n\r\n    event InitiativeCreated(uint id);\r\n    event InitiativeCompleted(bool success);\r\n\r\n    /**\r\n     * Return everything about initiative in one call.\r\n     * @param id Initiative to return.\r\n     */\r\n    function getInitiativeById (uint id) public view returns(\r\n        address initiator,\r\n        uint8 acceptance,\r\n        bytes20 contentHash,\r\n        address executor,\r\n        address[] backers,\r\n        uint totalFunds,\r\n        bool closed,\r\n        address[] voters,\r\n        bool[] votes,\r\n        uint[] funds\r\n    ) {\r\n        uint i;\r\n        initiator = initiative[id].initiator;\r\n        acceptance = initiative[id].acceptance;\r\n        contentHash = initiative[id].contentHash;\r\n        executor = initiative[id].executor;\r\n        backers = initiative[id].backers;\r\n        totalFunds = initiative[id].totalFunds;\r\n        closed = initiative[id].closed;\r\n        voters = new address[](initiative[id].numberOfVotes);\r\n        votes = new bool[](initiative[id].numberOfVotes);\r\n        funds = new uint[](initiative[id].backers.length);\r\n        for (i = 0; i < initiative[id].numberOfVotes; ++i) {\r\n            voters[i] = initiative[id].voters[i];\r\n            votes[i] = initiative[id].vote[voters[i]];\r\n        }\r\n        for (i = 0; i < initiative[id].backers.length; ++i) {\r\n            funds[i] = initiative[id].funds[initiative[id].backers[i]];\r\n        }\r\n    }\r\n\r\n    function getOpenedInitiativesIds () public view returns(\r\n        uint[] openedInitiativesIds\r\n    ) {\r\n        uint i;\r\n        uint opened = 0;\r\n\r\n        for (i = 1; i <= lastInitiativeId; ++i) {\r\n             if (initiative[i].closed == false)\r\n                 ++opened;\r\n        }\r\n\r\n        openedInitiativesIds = new uint[](opened);\r\n        opened = 0;\r\n\r\n        for (i = 1; i <= lastInitiativeId; ++i) {\r\n            if (initiative[i].closed == false) {\r\n                openedInitiativesIds[opened] = i;\r\n                ++opened;\r\n            }\r\n        }\r\n    }\r\n\r\n    /**\r\n     * @param contentHash Hash of the title/description.\r\n     * @param acceptance Percentage of voters needed to accept the executor's work.\r\n     * @return Created initiative ID.\r\n     */\r\n    function create (bytes20 contentHash, uint8 acceptance) public returns(uint) {\r\n        require(acceptance > 0 && acceptance <= 100);\r\n        uint id = ++lastInitiativeId;\r\n        initiative[id].initiator = msg.sender;\r\n        initiative[id].acceptance = acceptance;\r\n        initiative[id].contentHash = contentHash;\r\n        InitiativeCreated(id);\r\n        return id;\r\n    }\r\n\r\n    /**\r\n     * Mark the initiative completed by the sender.\r\n     * @param id Initiative to complete.\r\n     */\r\n    function complete (uint id) public {\r\n        require(initiative[id].initiator != address(0)); // initiative must exists\r\n        require(initiative[id].totalFunds > 0); // cannot mark \"empty\" initiative as completed\r\n        require(initiative[id].executor == address(0)); // cannot mark completed initiative again\r\n        initiative[id].executor = msg.sender;\r\n    }\r\n\r\n    /**\r\n     * Add funds to initiative.\r\n     * @param id Initiative to back.\r\n     */\r\n    function back (uint id) public payable {\r\n        require(msg.value > 0); // backer should really transfer some value\r\n        require(initiative[id].initiator != address(0)); // initiative must exists\r\n        require(initiative[id].executor == address(0)); // cannot back executed initiative\r\n        require(initiative[id].closed == false); // cannot back closed initiative\r\n        if (initiative[id].funds[msg.sender] == 0) { // if backed for the first time\r\n            initiative[id].backers.push(msg.sender); // add to the list of backers\r\n        }\r\n        initiative[id].funds[msg.sender] += msg.value;\r\n        initiative[id].totalFunds += msg.value;\r\n    }\r\n\r\n    /**\r\n     * Vote on executor's job.\r\n     * @param id Initiative to vote on.\r\n     * @param isPositive Determine whether the vote is positive.\r\n     */\r\n    function vote (uint id, bool isPositive) public {\r\n        Initiative storage ini = initiative[id];\r\n        require(initiative[id].initiator != address(0)); // initiative must exists\r\n        require(ini.closed == false); // cannot vote on closed initiatives\r\n        require(ini.executor != address(0)); // must vote only when executor is set\r\n        require(ini.voted[msg.sender] == false); // cannot vote twice\r\n        require(ini.funds[msg.sender] > 0); // must backed at least something to vote\r\n        if (ini.numberOfVotes < ini.voters.length) {\r\n            ini.voters[ini.numberOfVotes] = msg.sender;\r\n        } else {\r\n            ini.voters.push(msg.sender);\r\n        }\r\n        ini.numberOfVotes += 1;\r\n        ini.voted[msg.sender] = true;\r\n        ini.vote[msg.sender] = isPositive;\r\n        onAfterVote(ini);\r\n    }\r\n\r\n    /**\r\n     * Check whether given initiative has enough votes to be closed or reverted.\r\n     */\r\n    function onAfterVote (Initiative storage ini) internal {\r\n        uint positiveFunds = 0;\r\n        uint negativeFunds = 0;\r\n        for (uint i = 0; i < ini.numberOfVotes; ++i) {\r\n            uint funds = ini.funds[ini.voters[i]];\r\n            if (ini.vote[ini.voters[i]]) {\r\n                positiveFunds += funds; // add to positive score\r\n            } else {\r\n                negativeFunds += funds;\r\n            }\r\n        }\r\n        if (100 * positiveFunds / ini.totalFunds >= ini.acceptance) {\r\n            completeInitiative(ini, true);\r\n        } else if (100 * negativeFunds / ini.totalFunds > 100 - ini.acceptance) {\r\n            completeInitiative(ini, false);\r\n        } else if (ini.numberOfVotes == ini.backers.length) {\r\n            completeInitiative(ini, false);\r\n        }\r\n    }\r\n\r\n    /**\r\n     * Complete initiative and fund the executor or rollback it to a voting state.\r\n     */\r\n    function completeInitiative (Initiative storage ini, bool success) internal {\r\n        if (success) {\r\n            ini.executor.transfer(ini.totalFunds);\r\n            ini.closed = true;\r\n        } else {\r\n            for (uint i = 0; i < ini.numberOfVotes; ++i) {\r\n                ini.voted[ini.voters[i]] = false;\r\n            }\r\n            ini.executor = address(0);\r\n            ini.numberOfVotes = 0;\r\n        }\r\n        InitiativeCompleted(success);\r\n    }\r\n\r\n}",
  "sourcePath": "Z:\\ZitRos\\Projects\\initiative-society\\src\\ethereum\\contracts\\Initiative.sol",
  "compiler": {
    "name": "solc",
    "version": "0.4.18+commit.9cf6e910.Emscripten.clang"
  },
  "schemaVersion": "1.0.1",
  "updatedAt": "2018-02-04T10:54:47.380Z"
}